:060000000A128A11F62F1E
:100CDE008316031307117C3092000C30831203131A
:100CEE009700053092000800013083160317880024
:100CFE0089018316031305140130831203139F0019
:100D0E008030831603139F0008000D30F200F20BA3
:100D1E008E2E831203139F149F18962E972E932EAA
:100D2E001E08F100831603131E08F00008000130A0
:100D3E007102F53003197002031CA62EA72EAB2EDE
:100D4E00F430F0000130F1007108F3007008F20089
:100D5E000310F30CF20C0310F30CF20C7208831256
:100D6E00031395007108F3007008F2000310F30CE2
:100D7E00F20C72080139F400F40EF40D1708740623
:100D8E00DF397406970070080139F200F20E170869
:100D9E007206EF397206970008000030FC00003032
:100DAE00FB000030FA000030F900701CDF2EE02E40
:100DBE00F72E7408F907750803110318013E03197D
:100DCE00E92EFA07760803110318013E0319F02ED7
:100DDE00FB07770803110318013E0319F72EFC07D2
:100DEE000130F8000310F40DF50DF60DF70DF80BAC
:100DFE00F92E01300310F30CF20CF10CF00CFF3E47
:100E0E00031D012F7308720471047004031D102F4B
:100E1E00112FDC2E7C08F3007B08F2007A08F1001B
:100E2E007908F0000800003083120313AB00003085
:100E3E00AA000030A9000030A800230822042104D3
:100E4E00200403192B2F2C2F772F0130AC003A2FB3
:100E5E000130FD000310A00DA10DA20DA30DFD0B81
:100E6E00312F0130AC07A31F3D2F3E2F2F2F013006
:100E7E00FD000310A80DA90DAA0DAB0DFD0B402F03
:100E8E0023082702031D552F22082602031D552F66
:100E9E0021082502031D552F20082402031C582F5C
:100EAE00592F682F2008A4022108031C210FA50228
:100EBE002208031C220FA6022308031C230FA702DD
:100ECE00281401300310A30CA20CA10CA00CFF3EA1
:100EDE00031D692F0130AC02031D762F772F3E2F95
:100EEE002B08A3002A08A2002908A1002808A000A8
:100EFE0008000A128A117B260A128A110A128A1116
:100F0E006F260A128A11831603130614861408100C
:100F1E00881081138312031386010A128A118C26FC
:100F2E000A128A11710883120313B0007008AF0001
:100F3E000030A3000030A2000330A100FF30A0005B
:100F4E002F08F0003008F100F201F3010030F70035
:100F5E000030F6000130F500F430F4000A128A1168
:100F6E00D4260A128A11730883120313A70072087B
:100F7E00A6007108A5007008A4000A128A111A278B
:100F8E000A128A11831203132108B2002008B1003D
:100F9E003208F1003108F0000A128A119E260A1258
:100FAE008A11831203130618DD2FDE2FE12F08148A
:100FBE008810E72F8618E42FE52FE72F08108814E6
:100FCE001A3083120313AE00F730AD00AD0BED2FC8
:100FDE00AE0BED2FF22F942F0A128A1100288312D6
:100FEE000313B301B401B501B60183010A128A11CC
:020FFE00802F42
:04400E00F22FFF3F4F
:00000001FF
