:060000000A128A11F82F1C
:100EDC008316031307117C3092000C30831203131A
:100EEC009700053092000800831203139F149F187B
:100EFC00802F812F7D2F1E08F100831603131E08EF
:100F0C00F00008000130831603178800890183164E
:100F1C00031305140130831203139F0080308316D2
:100F2C0003139F0008000A128A1188270A128A11DB
:100F3C000A128A116E270A128A110A128A117A274A
:100F4C000A128A117108F8007008F7007808F1008D
:100F5C007708F0000A128A11C2270A128A111A3075
:100F6C00F600F830F500F50BB92FF60BB92F000091
:100F7C00A32F0A128A1100280430710200300319C1
:100F8C007002031CCA2FCB2FCF2FFF30F000033081
:100F9C00F1007108F3007008F2000310F30CF20C6E
:100FAC000310F30CF20C72088312031395007008F3
:100FBC000139F200F20E17087206EF39720697002B
:100FCC007108F3007008F2000310F30CF20C7208B5
:100FDC000139F400F40EF40D17087406DF397406A9
:100FEC0097000800F901FA01FB01FC0183010A12C8
:040FFC008A11992F8E
:04400E00F22FFF3F4F
:00000001FF
