:060000000A128A11ED2F27
:100CA2003F3406345B344F3466346D347D3407345C
:100CB2007F346F347E088A007F0882000A128A110C
:100CC2005B260A128A118000840A04087D06031931
:100CD2000034FF0A0319FE0A5F2EFC000A30F000FE
:100CE2000030F1007C08F800F9017808F200790878
:100CF200F3000A128A11F8260A128A117008FA0001
:100D02000A30F0000030F1007C08F800F9017808A0
:100D1200F2007908F3000A128A11A1260A128A1136
:100D22007008FB007A08203E8400831300088312B7
:100D3200031387007B08203E840000088800080017
:100D4200F501F31FA52EA62EAD2EF209F309F20A24
:100D52000319F30A0130F500F11FB02EB12EB62EA1
:100D6200F009F109F00A0319F10A70087104031974
:100D7200BB2EBC2EE92E0130F400C82E0130031028
:100D8200F00DF10DFF3E031DC02E0130F407F11FDF
:100D9200CB2ECC2EBF2E71087302031DD22E7008EB
:100DA2007202031CD52ED62EDC2E7008F2027108B8
:100DB200031CF303F30201300310F10CF00CFF3EAD
:100DC200031DDD2E0130F402031DE82EE92ECC2E88
:100DD20075080319ED2EEE2EF32EF209F309F20A2D
:100DE2000319F30A7308F1007208F0000800F50114
:100DF200F11FFC2EFD2E042FF009F109F00A031950
:100E0200F10A0130F500F31F072F082F0F2FF20907
:100E1200F309F20A0319F30A0130F506F601F701A4
:100E2200700871040319162F172F4C2F0130F4008C
:100E3200232F01300310F00DF10DFF3E031D1B2F78
:100E42000130F407F11F262F272F1A2F013003102C
:100E5200F60DF70DFF3E031D282F71087302031DC7
:100E6200342F70087202031C372F382F3F2F70085F
:100E7200F2027108031CF303F3027614013003102B
:100E8200F10CF00CFF3E031D402F0130F402031D54
:100E92004B2F4C2F272F75080319502F512F562FE8
:100EA200F609F709F60A0319F70A7708F100760836
:100EB200F0000800831603178801890183160313C3
:100EC20001087F398100FF30860087018801831283
:100ED20003138601870188017D080A128A116E2692
:100EE2000A128A11831203130618782F792F9E2F64
:100EF200343083120313AB00F130AA00AA0B7F2F08
:100F0200AB0B7F2F831203130618882F892F9E2F76
:100F12000130FD0764307D02031C902F912F922F28
:100F2200FD017D080A128A116E260A128A118312A5
:100F32000313061C9D2F9E2F982F8618A12FA22FD8
:100F4200C82F343083120313AB00F130AA00AA0B6E
:100F5200A82FAB0BA82F831203138618B12FB22F21
:100F6200C82F7D08031DB62FB72FBA2F6330FD009F
:100F7200BC2F0130FD027D080A128A116E260A1268
:100F82008A1183120313861CC72FC82FC22F06197A
:100F9200CB2FCC2F732F343083120313AB00F130DD
:100FA200AA00AA0BD22FAB0BD22F8312031306195E
:100FB200DB2FDC2F732FFD0100300A128A116E26FF
:100FC2000A128A1183120313061DE82FE92FE32F59
:100FD200732F0A128A11002883132A30FD0006306B
:100FE200FE005130FF00203084000A128A115F2671
:0E0FF2000A128A11FD0183010A128A115B2F77
:04400E00F22FFF3F4F
:00000001FF
