:060000000A128A11FC2F18
:100E90008316031388018312031388010130831220
:100EA000031388000630F2001330F100AD30F0007B
:100EB000F00B582FF10B582FF20B582F5F2F0230E9
:100EC0008312031388000630F2001330F100AD30B6
:100ED000F000F00B692FF10B692FF20B692F702FC7
:100EE00004308312031388000630F2001330F1003F
:100EF000AD30F000F00B7A2FF10B7A2FF20B7A2F36
:100F0000812F08308312031388000630F20013305B
:100F1000F100AD30F000F00B8B2FF10B8B2FF20BAB
:100F20008B2F922F10308312031388000630F200AB
:100F30001330F100AD30F000F00B9C2FF10B9C2F23
:100F4000F20B9C2FA32F203083120313880006304E
:100F5000F2001330F100AD30F000F00BAD2FF10BCB
:100F6000AD2FF20BAD2FB42F103083120313880076
:100F70000630F2001330F100AD30F000F00BBE2F60
:100F8000F10BBE2FF20BBE2FC52F083083120313B7
:100F900088000630F2001330F100AD30F000F00BA5
:100FA000CF2FF10BCF2FF20BCF2FD62F0430831280
:100FB000031388000630F2001330F100AD30F0006A
:100FC000F00BE02FF10BE02FF20BE02FE72F0230B8
:100FD0008312031388000630F2001330F100AD30A5
:100FE000F000F00BF12FF10BF12FF20BF12FF82F96
:100FF0004E2F0A128A11002883010A128A11482FE3
:04400E00F12FFF3F50
:00000001FF
