:060000000A128A11FC2F18
:100F0E007008831203139500CF30970508008316DF
:100F1E0003130711F93092000C308312031397005C
:100F2E003E309500073092000230F2000430F1009E
:100F3E00BA30F000F00BA12FF10BA12FF20BA12F65
:100F4E00000008000A128A118E270A128A113E30FA
:100F5E00F5000030F6007608F1007508F0000A1270
:100F6E008A1187270A128A111A30F400F830F3001A
:100F7E00F30BBF2FF40BBF2F00000130F507031842
:100F8E00F60A0030F60700307602FB3003197502C0
:100F9E00031CD22FD32FB22FFA30F5000030F600FB
:100FAE007608F1007508F0000A128A1187270A12D6
:100FBE008A111A30F400F830F300F30BE42FF40B1F
:100FCE00E42F00000130F5020030031CF603F60298
:100FDE00003076023F30031975020318F72FF82FF1
:100FEE00D72FAE2F0A128A11002883010A128A11F6
:020FFE00A92F19
:04400E00F12FFF3F50
:00000001FF
