:060000000A128A110C280F
:10000800FE00030EF2000A08F3000A128A116C2D92
:100018000A128A110F280A128A11B4250A128A11A3
:10002800C3000A128A11B5250A128A11C4000A12DD
:100038008A11B6250A128A11C5000A128A11B72533
:100048000A128A11C6000A128A11B8250A128A11E0
:10005800C700B401B501B601B701B801B901BA01C9
:10006800BB01BC01BD01BE01BF01C001C101C2018C
:10007800F601F701F801F90183010A128A114428EF
:100088000A128A11A6250A128A112F3084008312B7
:100098000313430883138000840A44088000840AF9
:1000A80045088000840A46088000840A47088000C2
:1000B800243084002F088000840A30088000840AD5
:1000C80031088000840A32088000840A33088000DE
:1000D8000A128A1141230A128A1109308312031362
:1000E800A40000300A128A11E4240A128A1101308D
:1000F80083120313A40001300A128A11E4240A129D
:100108008A11FF308316031385000130860083129D
:100118000313850186018316031301087F398100C3
:1001280001138B100B168B17831203134208BF00A1
:100138004108BE0000300A128A113A250A128A11B3
:10014800750883120313BC007408BB0001300A123F
:100158008A113A250A128A11750883120313BA0004
:100168007408B90001303C02003003193B0203183F
:10017800BE28BF28C428FF30C2070130C000FB28B2
:1001880001303C02003003193B02031CCC28CD2867
:10019800DA2801303C02F43003193B020318D52851
:1001A800D628DA28FF30C207C001FB2802303C02FB
:1001B8000D3003193B02031CE228E328EF28033023
:1001C8003C02003003193B020318EB28EC28EF2807
:1001D8000130C207D82803303C02003003193B0223
:1001E800031CF728F828FB280130C207C128013072
:1001F8003A02F4300319390203180329042906299D
:10020800C101112902303A020D3003193902031CC9
:100218000E290F2911290130C1004208803A703E89
:10022800031C172918291929C201C21F1C291D29B5
:100238001F290F30C2003E08031D232924293F2906
:100248003F08803EAC0004300310AC0CFF3E031D99
:1002580028292C080F390A128A118D240A128A11AA
:10026800831203133F08803E0F390A128A118D2426
:100278000A128A11A0293E03031D432944295F2934
:100288003F08C03EAC0004300310AC0CFF3E031D19
:1002980048292C080F390A128A118D240A128A114A
:1002A800831203133F08C03E0F390A128A118D24A6
:1002B8000A128A11A02902303E06031D6429652905
:1002C80080293F08943EAC0004300310AC0CFF3E7C
:1002D800031D69292C080F390A128A118D240A1264
:1002E8008A11831203133F08943E0F390A128A11A8
:1002F8008D240A128A11A02903303E06031D852980
:100308008629A0293F08D43EAC0004300310AC0C69
:10031800FF3E031D8A292C080F390A128A118D24E1
:100328000A128A11831203133F08D43E0F390A12A6
:100338008A118D240A128A1120300A128A11F52393
:100348000A128A11831203134108031DAC29AD292F
:10035800D12980304207AC00AD010318AD0AC21F95
:10036800B629AD03043083120313AE002D0DAD0C76
:10037800AC0CAE0BBA292C080F390A128A118D243D
:100388000A128A11831203134208803E0F390A1297
:100398008A118D240A128A114D2A4103031DD52979
:1003A800D629FA29C0304207AC00AD010318AD0ABE
:1003B800C21FDF29AD03043083120313AE002D0DD5
:1003C800AD0CAC0CAE0BE3292C080F390A128A11BC
:1003D8008D240A128A11831203134208C03E0F3972
:1003E8000A128A118D240A128A114D2A02304106F6
:1003F800031DFF29002A242A94304207AC00AD01CE
:100408000318AD0AC21F092AAD030430831203136F
:10041800AE002D0DAD0CAC0CAE0B0D2A2C080F390F
:100428000A128A118D240A128A11831203134208B0
:10043800943E0F390A128A118D240A128A114D2A04
:1004480003304106031D292A2A2A4D2AD43042079F
:10045800AC00AD010318AD0AC21F332AAD03043046
:1004680083120313AE002D0DAD0CAC0CAE0B372A66
:100478002C080F390A128A118D240A128A11831244
:1004880003134208D43E0F390A128A118D240A1226
:100498008A11831203133D08031D532A542A5B2A29
:1004A80000300A128A11F5230A128A11612A0130D2
:1004B8000A128A11F5230A128A11831203134008BB
:1004C8000319672A682A772A033083120313AE00B8
:1004D8008A30AD005530AC00AC0B702AAD0B702AD9
:1004E800AE0B702A9828063083120313AE0013301F
:1004F800AD00AD30AC00AC0B7F2AAD0B7F2AAE0B44
:100508007F2A98280A128A110C2883120313A00044
:10051800201C8F2A902AA32A340884008317351CAC
:1005280083130130F40037080739013E9D2A031070
:10053800F40DFF3E031D9B2A74088004B62A340874
:1005480084008317351C83130130F40037080739FA
:10055800013EB02A0310F40DFF3E031DAE2A7408B5
:10056800FF3A8005A01CB92ABA2AD02A3408840088
:100578008317351C83130130F400370CF500F50C94
:10058800750C0739013ECA2A0310F40DFF3E031DFE
:10059800C82A74088004E62A340884008317351CA6
:1005A80083130130F400370CF500F50C750C07398E
:1005B800013EE02A0310F40DFF3E031DDE2A7408F5
:1005C800FF3A8005201DE92AEA2AFD2A340884001A
:1005D8008317351C83130130F40038080739013EAE
:1005E800F72A0310F40DFF3E031DF52A7408800452
:1005F800102B340884008317351C83130130F40052
:1006080038080739013E0A2B0310F40DFF3E031D7D
:10061800082B7408FF3A8005A01D132B142B2A2BD6
:10062800340884008317351C83130130F400380C18
:10063800F500F50C750C0739013E242B0310F40D59
:10064800FF3E031D222B74088004402B34088400CD
:100658008317351C83130130F400380CF500F50CB2
:10066800750C0739013E3A2B0310F40DFF3E031DAC
:10067800382B7408FF3A8005080034308400831250
:100688000313240883138000840A25088000840A41
:1006980026088000840A27088000840A2808800029
:1006A80000303506031D5A2B05303406031D5D2B1B
:1006B8005E2B622B8316031385017D2B00303506D4
:1006C800031D682B06303406031D6B2B6C2B702B17
:1006D8008316031386017D2B00303506031D762B08
:1006E80007303406031D792B7A2BF42B831603135A
:1006F8008701343083120313AA00F130A900A90B33
:10070800832BAA0B832B03300A128A118D240A1219
:100718008A110D3083120313AA00FB30A900A90B1C
:10072800932BAA0B932B03300A128A118D240A12D9
:100738008A112A3083120313AA008D30A900A90B4D
:10074800A32BAA0BA32B03300A128A118D240A1299
:100758008A1102300A128A118D240A128A11023073
:100768000A128A118D240A128A1108300A128A1173
:100778008D240A128A1100300A128A118D240A1255
:100788008A1106300A128A118D240A128A11083039
:1007980083120313AB002B152B08A9000430031098
:1007A800A90CFF3E031DD32B29080F390A128A1101
:1007B8008D240A128A11831203132B080F390A1287
:1007C8008A118D240A128A1100300A128A118D2486
:1007D8000A128A1101300A128A118D240A128A110A
:1007E800080083120313A300340884008317351C00
:1007F80083130130A10036080739013E052C031088
:10080800A10DFF3E031D032C210880042308A1002D
:1008180004300310A10CFF3E031D0D2C21080F39D5
:100828000A128A1189220A128A11831203133408C0
:1008380084008317351C83130130A100360CA200F5
:10084800A20C220C0739013E2B2C0310A10DFF3EF0
:10085800031D292C21088004193083120313A100D9
:10086800A10B342C372C831203133408840083170C
:10087800351C83130130A100360CA200A20C220CF7
:100888000739013E492C0310A10DFF3E031D472CDB
:100898002108FF3A800523080F390A128A11892294
:1008A8000A128A1183120313340884008317351C33
:1008B80083130130A100360CA200A20C220C0739C8
:1008C800013E682C0310A10DFF3E031D662C210874
:1008D8008004193083120313A100A10B712C742C0E
:1008E80083120313340884008317351C83130130E3
:1008F800A100360CA200A20C220C0739013E862C5E
:100908000310A10DFF3E031D842C2108FF3A80052A
:10091800080083120313A300340884008317351CCE
:1009280083130130A10036080739013E9D2C0310BE
:10093800A10DFF3E031D9B2C2108FF3A80052308CB
:100948000A128A1189220A128A118312031334089F
:1009580084008317351C83130130A100360CA200D4
:10096800A20C220C0739013EBB2C0310A10DFF3E3F
:10097800031DB92C210880040B3083120313A20035
:100988006130A100A10BC62CA20BC62CCB2C831264
:100998000313340884008317351C83130130A10026
:1009A800360CA200A20C220C0739013EDD2C0310E4
:1009B800A10DFF3E031DDB2C2108FF3A800508002E
:1009C80083120313A7002708A50002300310A50D02
:1009D800FF3E031DEA2C0310250D403EA6000430FF
:1009E8000310A60CFF3E031DF42C26080F390A122B
:1009F8008A118D240A128A11831203132708A5006D
:100A080002300310A50DFF3E031D052D0310250D13
:100A1800403E0F390A128A118D240A128A11831254
:100A28000313A8012808240784000A128A119025B4
:100A38000A128A110A128A11F5230A128A11013040
:100A480083120313A80708302802031C2C2D2D2D10
:100A5800162D08300A128A118D240A128A110030C4
:100A68000A128A118D240A128A11080083120313AC
:100A7800A200023083120313A000A00B412D000036
:100A88008330831203139F052208A000013003104E
:100A9800A00DFF3E031D4B2D0310200D9F040630B3
:100AA80083120313A1002F30A000A00B592DA10B16
:100AB800592D5E2D831203139F149F18642D652DE5
:100AC800612D1E08F500831603131E08F4000800A4
:100AD8008B1C6F2D702D892D3430F100F130F00012
:100AE800F00B742DF10B742D792D83120313061856
:100AF8007E2D7F2D882D0130BD0702303D02031C5D
:100B0800862D872D882DBD018B1073088A00720EE3
:100B18008300FE0E7E0E090005308A000408840A50
:100B2800820700340A341F341F341F340E3404344F
:100B3800003400340E341F34153415341F341F3478
:100B48001F340A34033083160317880089010130E3
:100B5800831203139F008130831603139F0008003C
:0A0B6800073400341A342C343E34F4
:04400E00F22FFF3F4F
:00000001FF
