:100000000A128A11D02FF5008316031320088400EA
:100010008317211C83130130F30022080739013EA6
:1000200013280310F30DFF3E031D11287308FF3A38
:10003000800575080A128A119C210A128A118316FA
:100040000313200884008317211C83130130F3005D
:10005000220CF400F40C740C0739013E3128031013
:10006000F30DFF3E031D2F28730880040B30F400AE
:100070006230F300F30B3A28F40B3A2800008316A1
:100080000313200884008317211C83130130F3001D
:10009000220CF400F40C740C0739013E51280310B3
:1000A000F30DFF3E031D4F287308FF3A800508003B
:1000B000013083120313B800831603132A08831236
:1000C0000313BA0083160313290883120313B9001C
:1000D0001F30BB000030BC0083160313D201BB28C5
:1000E000FF308312BB070318BC0AFF30BC073B0874
:1000F000B33E84000030F3000030F2000030F10025
:100100000A30F0003708F7003608F6003508F50029
:100110003408F4000A128A1570250A128A11700830
:10012000303E8313800083120313B801FF30B907F8
:100130000318BA0AFF30BA070030A7000030A60043
:100140000030A5000A30A4003708AB003608AA002A
:100150003508A9003408A8000A128A156C260A126C
:100160008A11831203132708B7002608B600250852
:10017000B5002408B40083123B083C040319C128CD
:10018000C228E2283708360435043404031DC92880
:10019000CA2870283808031DCE28CF2870283A08AE
:1001A000803AFF0080307F02031DD82801303902D9
:1001B000031CDB28DC28E22883160313B118E1288E
:1001C000E2287028831203133208A8003308A9001C
:1001D0003B08B33EAA003A08AC003908AB000A124B
:1001E0008A1515260A128A110800A03084007608A4
:1001F00083138000840A77088000840A78088000CE
:10020000840A79088000840A7A0880000030831606
:1002100003132106031D0E2905302006031D112995
:100220001229142985012B2900302106031D1A29C2
:1002300006302006031D1D291E29202986012B2991
:1002400000302106031D262907302006031D292919
:100250002A299B2987013430FC00F130FB00FB0B7D
:100260002F29FC0B2F29342903300A128A1103206D
:100270000A128A110D30FC00FB30FB00FB0B3E29FB
:10028000FC0B3E29432903300A128A1103200A126B
:100290008A112A30FC008D30FB00FB0B4D29FC0B32
:1002A0004D29522903300A128A1103200A128A1199
:1002B00002300A128A1103200A128A1102300A122D
:1002C0008A1103200A128A1108300A128A110320A7
:1002D0000A128A1100300A128A1103200A128A11A6
:1002E00006300A128A1103200A128A110830FD0012
:1002F0007D157D08FB0004300310FB0CFF3E031D41
:100300007C297B080F390A128A1103200A128A11EC
:100310007D080F390A128A1103200A128A1100304F
:100320000A128A1103200A128A1101300A128A1154
:1003300003200A128A110800F200721CA029A129C8
:10034000B62983160313200884008317211C831306
:100350000130F00023080739013EB0290310F00DE9
:10036000FF3E031DAE2970088004CB2983160313BA
:10037000200884008317211C83130130F000230818
:100380000739013EC5290310F00DFF3E031DC329A7
:100390007008FF3A8005F21CCE29CF29E5292008F4
:1003A00084008317211C83130130F000230CF1001B
:1003B000F10C710C0739013EDF290310F00DFF3EEF
:1003C000031DDD2970088004FB29200884008317A1
:1003D000211C83130130F000230CF100F10C710C8F
:1003E0000739013EF5290310F00DFF3E031DF329E7
:1003F0007008FF3A8005721DFE29FF29122A200885
:1004000084008317211C83130130F000240807396E
:10041000013E0C2A0310F00DFF3E031D0A2A70084E
:100420008004252A200884008317211C83130130AF
:10043000F00024080739013E1F2A0310F00DFF3E8B
:10044000031D1D2A7008FF3A8005F21D282A292A5B
:100450003F2A200884008317211C83130130F000F9
:10046000240CF100F10C710C0739013E392A0310FC
:10047000F00DFF3E031D372A70088004552A20081E
:1004800084008317211C83130130F000240CF10039
:10049000F10C710C0739013E4F2A0310F00DFF3E9D
:1004A000031D4D2A7008FF3A8005080083120313CC
:1004B0003F0884008313000884000A128A150A206A
:1004C0000A128A11253A031D662A672A392B3F082A
:1004D00084000130800783160313A901AA010030AC
:1004E000B100FF30AB00FF30AC0083120313C70133
:1004F000932A83160313B114831203133F08840055
:1005000001308007932A0130C700932A3F088400F6
:10051000000884000A128A150A200A128A11303A49
:100520000319792A832A47080319972A982A862AC1
:100530003F08F6004008F7000A128A15C2250A1281
:100540008A11770883160313AA007608A900AA1F48
:10055000AA2AAB2AB12A3114A909AA09A90A03199E
:10056000AA0A831203133F08840083130008C900FA
:10057000490884000A128A150A200A128A11C80042
:10058000C92A0130C907D12A6930C800D12AC80157
:10059000D12A48086C3A0319C12A193A0319C42A06
:1005A000C72A490884000A128A150A200A128A11E9
:1005B000753A031DDC2ADD2A312B062B4008840006
:1005C0000008FF00023080077F0884000008C10097
:1005D000840A0008C2004108C3004208C400C501E3
:1005E000C6010E2B400884000008FF00043080077D
:1005F0007F0884000008C300840A0008C400840A3D
:100600000008C500840A0008C6000E2B4808693A95
:100610000319DE2A053A0319F22A0E2B3F0884003B
:100620004908013E8000262B3D08B2003E08B30079
:100630004608B7004508B6004408B5004308B400B2
:100640000A128A1158200A128A11522B4908840072
:100650000A128A150A200A128A11753A0319142BF4
:10066000312B831203133F0884000130831380076A
:10067000522B3F088400000884000A128A150A20C1
:100680000A128A11C100C2014108F0004208F100BB
:100690003D08F2003E08F3000A128A1566270A1286
:1006A0008A11312B080083120313061086140615D5
:1006B0008615061A5C2B5D2B722B0230F20004307B
:1006C000F100BA30F000F00B632BF10B632BF20B4F
:1006D000632B000083120313061E6F2B702B6A2BF3
:1006E0003130F62C861A752B762B8B2B0230F200CC
:1006F0000430F100BA30F000F00B7C2BF10B7C2BB6
:10070000F20B7C2B000083120313861E882B892B8F
:10071000832B3230F62C061B8E2B8F2BA42B023012
:10072000F2000430F100BA30F000F00B952BF10B21
:10073000952BF20B952B000083120313061FA12BA0
:10074000A22B9C2B3330F62C861BA72BA82BBD2B62
:100750000230F2000430F100BA30F000F00BAE2BA2
:10076000F10BAE2BF20BAE2B000083120313861F8E
:10077000BA2BBB2BB52B4130F62C06148610061570
:100780008615061AC42BC52BDA2B0230F200043072
:10079000F100BA30F000F00BCB2BF10BCB2BF20BAE
:1007A000CB2B000083120313061ED72BD82BD22B82
:1007B0003430F62C861ADD2BDE2BF32B0230F200C0
:1007C0000430F100BA30F000F00BE42BF10BE42B15
:1007D000F20BE42B000083120313861EF02BF12B87
:1007E000EB2B3530F62C061BF62BF72B0C2C02309E
:1007F000F2000430F100BA30F000F00BFD2BF10BE9
:10080000FD2BF20BFD2B000083120313061F092C96
:100810000A2C042C3630F62C861B0F2C102C252C81
:100820000230F2000430F100BA30F000F00B162C68
:10083000F10B162CF20B162C000083120313861FEB
:10084000222C232C1D2C4230F62C06148614061163
:100850008615061A2C2C2D2C422C0230F200043066
:10086000F100BA30F000F00B332CF10B332CF20B0B
:10087000332C000083120313061E3F2C402C3A2C0D
:100880003730F62C861A452C462C5B2C0230F200B1
:100890000430F100BA30F000F00B4C2CF10B4C2C72
:1008A000F20B4C2C000083120313861E582C592C7B
:1008B000532C3830F62C061B5E2C5F2C742C023027
:1008C000F2000430F100BA30F000F00B652CF10BAF
:1008D000652CF20B652C000083120313061F712C8C
:1008E000722C6C2C3930F62C861B772C782C8D2CA6
:1008F0000230F2000430F100BA30F000F00B7E2C30
:10090000F10B7E2CF20B7E2C000083120313861F4A
:100910008A2C8B2C852C4330F62C06148614061555
:100920008611061A942C952CAA2C0230F200043061
:10093000F100BA30F000F00B9B2CF10B9B2CF20B6A
:100940009B2C000083120313061EA72CA82CA22C9C
:100950002A30F62C861AAD2CAE2CC32C0230F200B5
:100960000430F100BA30F000F00BB42CF10BB42CD1
:10097000F20BB42C000083120313861EC02CC12C72
:10098000BB2C3030F62C061BC62CC72CDC2C0230BE
:10099000F2000430F100BA30F000F00BCD2CF10B76
:1009A000CD2CF20BCD2C000083120313061FD92C83
:1009B000DA2CD42C2330F62C861BDF2CE02CF52CE3
:1009C0000230F2000430F100BA30F000F00BE62CF7
:1009D000F10BE62CF20BE62C000083120313861FAA
:1009E000F22CF32CED2C4430F62C6E3008008316DC
:1009F0000317880189016630840083160313630896
:100A000083138000840A64088000840A65088000DB
:100A1000840A66088000840A6708800076308400B3
:100A20008312031366088000840A67088000840A22
:100A300068088000840A69088000840A6A088000C7
:100A40000A128A11F5200A128A110A128A15B22393
:100A50000A128A1100300A128A1103200A128A111E
:100A600001300A128A1103200A128A1108300A1270
:100A70008A1103200A128A1100300A128A110320F7
:100A80000A128A110130F6008030F7000A128A1526
:100A9000A0240A128A11103083120313E4003930A3
:100AA000E3000D30E200E20B532DE30B532DE40B7A
:100AB000532D00300A128A1103200A128A110130C4
:100AC0000A128A1103200A128A110A128A15C123F6
:100AD0000A128A1183120313EF002A306F06031DD6
:100AE000722D732D872D83160313AF01B001AD0155
:100AF000AE01B20100300A128A1103200A128A11D3
:100B000001300A128A1103200A128A11652D303031
:100B10006F02031C8C2D8D2DEE2D3A306F020318C1
:100B2000922D932DEE2D831603133208031D992D5C
:100B30009A2DC02D3008F1002F08F0000A30F20085
:100B40000030F3000A128A1518240A128A1183123F
:100B500003136F087007E2000030031801307107BB
:100B6000E3006208D03E83160313AF008312031321
:100B700063080318013EFF3E83160313B000E52D02
:100B80002E08F1002D08F0000A30F2000030F300CA
:100B90000A128A1518240A128A11831203136F0885
:100BA0007007E2000030031801307107E3006208AB
:100BB000D03E83160313AD0083120313630803189A
:100BC000013EFF3E83160313AE00831203136F082A
:100BD0000A128A15D2260A128A11652D41306F0633
:100BE000031DF32DF42DFF2D2B3083160313B200BC
:100BF0002B300A128A15D2260A128A11652D42302C
:100C00006F06031D042E052E102E2D3083160313A0
:100C1000B2002D300A128A15D2260A128A11652DC9
:100C200043306F06031D152E162E212E2A308316F3
:100C30000313B2002A300A128A15D2260A128A1128
:100C4000652D44306F06031D262E272E322E2F30A1
:100C500083160313B2002F300A128A15D2260A1205
:100C60008A11652D23306F06031D372E382E652D12
:100C700000300A128A1103200A128A1101300A1266
:100C80008A1103200A128A1108300A128A110320DD
:100C90000A128A1100300A128A1103200A128A11DC
:100CA0000D30F6008030F7000A128A15A0240A12CF
:100CB0008A110C300A128A1103200A128A1100309C
:100CC0000A128A1103200A128A11922F2D082F0767
:100CD000A5002E0803182E0A3007A600A701A801B8
:100CE000D33083120313CF003130D00083160313A7
:100CF000280883120313D4008316031327088312D2
:100D00000313D30083160313260883120313D200A0
:100D100083160313250883120313D1000A128A15C0
:100D2000F5230A128A11D330F6000030F7000A12B8
:100D30008A15A0240A128A11A22F2D082F02A500BD
:100D40002E08031C2E0A3002A600A701A801D330EA
:100D500083120313CF003130D00083160313280809
:100D600083120313D400831603132708831203137B
:100D7000D30083160313260883120313D2008316AD
:100D80000313250883120313D1000A128A15F523D1
:100D90000A128A11932E3008F1002F08F0002E0855
:100DA000F3002D08F2000A128A1518240A128A117B
:100DB000700883160313A5007108A600A701A801F7
:100DC000D33083120313CF003130D00083160313C6
:100DD000280883120313D4008316031327088312F1
:100DE0000313D30083160313260883120313D200C0
:100DF00083160313250883120313D1000A128A15E0
:100E0000F5230A128A11932E2D082E040319092F97
:100E10000A2F7E2F2E08F1002D08F0003008F30075
:100E20002F08F2000A128A15E2240A128A117108A8
:100E300083120313EC007008EB00831603132D08D4
:100E400083120313A400831603132E0883120313C3
:100E5000A500A601A701831603133008F3002F088D
:100E6000F2002E08F1002D08F0000A128A156824FD
:100E70000A128A11700883120313E2007108E3005A
:100E8000E401E5016508F8006408F7006308F6006E
:100E90006208F5000030FC000030FB000030FA0072
:100EA0006430F9000A128A1524250A128A1178087A
:100EB00083120313AB007708AA007608A90075080F
:100EC000A8000A128A156C260A128A1183120313CB
:100ED0002508EE002408ED00D330CF002330D000E9
:100EE0006C08D2006B08D1006E08D4006D08D300E6
:100EF0000A128A15F5230A128A11932E2B30F60056
:100F00008030F7000A128A15A0240A128A11A22F33
:100F10001830F6008030F7000A128A15A0240A1251
:100F20008A11A22F8316031332082A3A0319CB2EF3
:100F3000013A0319662E063A03199D2E023A031947
:100F4000042F882F1F3083120313E4007130E30055
:100F50001D30E200E20BAA2FE30BAA2FE40BAA2F0D
:100F6000B12F83160313AF01B001AD01AE01B20181
:100F70000030A8000030A7000030A6000030A50017
:100F800000300A128A1103200A128A1101300A1253
:100F90008A1103200A128A11652D0A128A1100286B
:100FA000831603130A128A15A5230A128A11E30075
:100FB0000A128A15A6230A128A11E4000A128A1557
:100FC000A7230A128A11E5000A128A15A8230A1219
:100FD0008A11E6000A128A15A9230A128A11E7006B
:100FE0008313A0308400E3300A128A15AA230A1260
:100FF0008A1183120313EF0183010A128A11F72C5D
:10100000FF1B0A2883137F1883170008840A03191B
:10101000FF0A080008308A000408840A82070034A6
:10102000433461346C34633475346C346134643407
:101030006F3472346134003452346534733475342F
:101040006C347434613464346F343A3400344F3463
:101050007034653472346134633469346F346E349F
:101060003F340034253475342E3425343034323452
:10107000753400344534723472346F347234003451
:0810800025346C347534003492
:101748000800073400341A342C343E346400800115
:10175800840A0406031900340406AB2B831203130E
:101768008601F03083160313860083160317890158
:101778007F3083160313810508006E30F300CA2BEF
:101788000A128A1153230A128A15F3006E3073065F
:101798000319CF2BD02BC42B730808008312031313
:1017A8004C08CE00E42B4A08BD004B08BE004E3062
:1017B800BF004D08C0000A128A1156220A128A1563
:1017C800831203134E0884000A128A150A200A128B
:1017D8008A15003A031DF12BF22BD72BCA01CB0136
:1017E8000800513083120313D6004F08D700003089
:1017F800D800D901DA01E001E1015730CA00003010
:10180800CB005008CC005630CD000A128A15D223DE
:101818000A128A158312031359084F07D500550871
:101828008400831380010800F401F501701C1D2C4D
:101838001E2C242C7208F4070318F50A7308F50700
:1018480001300310F20DF30DFF3E031D252C01306E
:101858000310F10CF00CFF3E031D2C2C70087104D2
:10186800031D372C382C1A2C7508F1007408F00069
:10187800080083120313A601A7015A2C2508A30008
:10188800A4012308F0002408F1002108F20022082E
:10189800F3000A128A1566270A128A150130831284
:1018A8000313A6070318A70A0030A707260820076E
:1018B800A3002308840083130008A5002508031D3E
:1018C800662C672C422C08007008710403196D2CD3
:1018D8006E2C9B2C0130F4007A2C01300310F00D93
:1018E800F10DFF3E031D722C0130F407F11F7D2C12
:1018F8007E2C712C71087302031D842C70087202EF
:10190800031C872C882C8E2C7008F2027108031C8B
:10191800F303F30201300310F10CF00CFF3E031D3A
:101928008F2C0130F402031D9A2C9B2C7E2C7308FB
:10193800F1007208F0000800FB01FC01C52C7B08CF
:101948007607F9007708F8000318F80AFB1FAD2C92
:10195800F8037808FA007A0883120313FF0079085D
:1019680084000A128A1500200A128A150A128A159A
:10197800D2260A128A150130FB070318FC0A003028
:10198800FC077B087607F9007708F8000318F80ABF
:10199800FB1FCF2CF8037808FA007A088312031388
:1019A800FF00790884000A128A1500200A128A1595
:1019B800003A031DE02CE12CA32C0800F401F501EA
:1019C800700871040319E92CEA2C1F2D0130F60068
:1019D800F62C01300310F00DF10DFF3E031DEE2C27
:1019E8000130F607F11FF92CFA2CED2C0130031009
:1019F800F40DF50DFF3E031DFB2C71087302031D4A
:101A0800072D70087202031C0A2D0B2D122D700869
:101A1800F2027108031CF303F3027414013003107B
:101A2800F10CF00CFF3E031D132D0130F602031DCF
:101A38001E2D1F2DFA2C7508F1007408F0000800FF
:101A4800003083120313A3000030A2000030A1006D
:101A58000030A000751C312D322D4B2D79088312D2
:101A68000313A0077A0803110318013E03193D2D3B
:101A7800A1077B0803110318013E0319442DA2078F
:101A88007C0803110318013E03194B2DA3070130ED
:101A9800FD000310F90DFA0DFB0DFC0DFD0B4D2D8E
:101AA80001300310F80CF70CF60CF50CFF3E031D83
:101AB800552D7808770476047504031D642D652D6B
:101AC8002E2D831203132308F8002208F70021089B
:101AD800F6002008F5000800730872047104700409
:101AE8000319772D782DB92D0130F900862D013095
:101AF800F8000310F00DF10DF20DF30DF80B7D2D2C
:101B08000130F907F31F892D8A2D7B2D7308770281
:101B1800031D982D72087602031D982D7108750211
:101B2800031D982D70087402031C9B2D9C2DAA2D53
:101B38007008F4027108031C710FF5027208031C87
:101B4800720FF6027308031C730FF70201300310BB
:101B5800F30CF20CF10CF00CFF3E031DAB2D013021
:101B6800F902031DB82DB92D8A2D7708F3007608E0
:101B7800F2007508F1007408F0000800F901FA0194
:101B8800760884008313000884000A128A150A2044
:101B98000A128A152A3A031DD22DD32DFF2D760855
:101BA800840001308007770884000008FF000230B5
:101BB80080077F0884000008F900840A0008FA00FA
:101BC800102E7A08F1007908F0000A30F20000308F
:101BD800F3000A128A1518240A128A157808700761
:101BE800F9000030031801307107FA007608840004
:101BF80001308313800776088400000884000A12E5
:101C08008A150A200A128A15D03EF8000A3078028E
:101C1800031C0F2E102EE52D7A08F7007908F60020
:101C2800080083160313311C1A2E1B2E282E83122C
:101C380003132A08A0002808A1002908A2000A12F4
:101C48008A153D240A128A1583120313AC1F2D2E00
:101C58002E2E302EAB01AC01AD01AE014A2E203044
:101C6800F0000030F100831203132808F20029085D
:101C7800F3000A128A1566270A128A1501308312A0
:101C88000313AD070318AE0A0030AE072E08803ADA
:101C9800FD002C08803A7D02031D542E2B082D02CE
:101CA800031C572E582E332E8316031331185D2E1E
:101CB8005E2E6B2E831203132A08A0002808A100A9
:101CC8002908A2000A128A153D240A128A1508005A
:101CD800003083120313B0000030AF000030AE00B4
:101CE8000030AD00270826042504240403197D2E9E
:101CF8007E2EC92E0130B1008C2E0130AC000310AD
:101D0800A40DA50DA60DA70DAC0B832E0130B107B0
:101D1800A71F8F2E902E812E0130AC000310AD0D21
:101D2800AE0DAF0DB00DAC0B922E27082B02031D84
:101D3800A72E26082A02031DA72E25082902031DFF
:101D4800A72E24082802031CAA2EAB2EBA2E24087C
:101D5800A8022508031C250FA9022608031C260F24
:101D6800AA022708031C270FAB022D140130031009
:101D7800A70CA60CA50CA40CFF3E031DBB2E01301E
:101D8800B102031DC82EC92E902E3008A7002F08B7
:101D9800A6002E08A5002D08A4000800F50083164B
:101DA8000313200884008317211C83130130F300D8
:101DB80022080739013EE22E0310F30DFF3E031DF2
:101DC800E02E730880047508F30004300310F30C48
:101DD800FF3E031DEA2E73080F390A128A119C214F
:101DE8000A128A1583160313200884008317211CFE
:101DF80083130130F300220CF400F40C740C07393F
:101E0800013E082F0310F30DFF3E031D062F730834
:101E180080041A30F300F30B0F2F0000831603130E
:101E2800200884008317211C83130130F300220C3F
:101E3800F400F40C740C0739013E242F0310F30D41
:101E4800FF3E031D222F7308FF3A800575080F39DE
:101E58000A128A119C210A128A1583160313200874
:101E680084008317211C83130130F300220CF40033
:101E7800F40C740C0739013E432F0310F30DFF3E99
:101E8800031D412F730880041A30F300F30B4A2F07
:101E9800000083160313200884008317211C831372
:101EA8000130F300220CF400F40C740C0739013EE5
:101EB8005F2F0310F30DFF3E031D5D2F7308FF3ADC
:101EC800800508007208730403196B2F6C2F722F9A
:101ED80072087304031D712F722F792F70080A126C
:101EE8008A15A4230A128A15FF2F7208093EF400E6
:101EF80073080318013E003EF50074088400831738
:101F0800751C83130008F600840A0008F700760899
:101F180077040319902F912FC32F7208093EF400FC
:101F280073080318013E003EF50074088400831707
:101F3800751C83130008F600840A0008F70072086D
:101F4800023EF80073080318013E003EF9007808C5
:101F580084008317791C83130008FA00840A000898
:101F6800FB007B08803AFC007708803A7C02031D5E
:101F7800BF2F76087A020318C22FC32FFF2F7208CB
:101F880084008317731C83130008F400840A000874
:101F9800F5007208023EF60073080318013E003E81
:101FA800F700760884008317771C831300087407EA
:101FB800F9007508F8000318F80A801FE42FF803E1
:101FC8007808FA007908840083177A1C831370084C
:101FD80080007208023EF40073080318013E003EB8
:101FE800F500740884008317751C8313013080077B
:081FF800840A0318800A0800A6
:04400E00F22FFF3F4F
:00000001FF
