:100000000A128A11D72F00308A000408840A820756
:10001000003445346C3469346734653420345434E6
:10002000653463346C3461343A34203400344334FE
:1000300061347234613463347434653472346534D9
:0600400073343A34003471
:1005BC00073400341A342C343E348312031386016E
:1005CC00F0308316031386008316031789017F30DE
:1005DC0083160313810508006E30F300FB2A0A1200
:1005EC008A1133260A128A11F3006E30730603192E
:1005FC00002B012BF52A73080800F701F801192BC1
:10060C007708760784000A128A1103200A128A11CD
:10061C000A128A117C230A128A110130F707031877
:10062C00F80A0030F8077708760784000A128A1156
:10063C0003200A128A11003A031D252B262B062BA8
:10064C000800F50083120313280884008317291C63
:10065C0083130130F3002A080739013E372B0310AE
:10066C00F30DFF3E031D352B7308FF3A800575080B
:10067C000A128A11BD240A128A1183120313280844
:10068C0084008317291C83130130F3002A0CF40017
:10069C00F40C740C0739013E552B0310F30DFF3E7F
:1006AC00031D532B730880040B30F4006230F300ED
:1006BC00F30B5E2BF40B5E2B000083120313280844
:1006CC0084008317291C83130130F3002A0CF400D7
:1006DC00F40C740C0739013E752B0310F30DFF3E1F
:1006EC00031D732B7308FF3A80050800F500831275
:1006FC000313280884008317291C83130130F3008B
:10070C002A080739013E8C2B0310F30DFF3E031D05
:10071C008A2B730880047508F30004300310F30C63
:10072C00FF3E031D942B73080F390A128A11BD2446
:10073C000A128A1183120313280884008317291CB8
:10074C0083130130F3002A0CF400F40C740C0739F9
:10075C00013EB22B0310F30DFF3E031DB02B7308AB
:10076C0080041A30F300F30BB92B0000831203132F
:10077C00280884008317291C83130130F3002A0CEA
:10078C00F400F40C740C0739013ECE2B0310F30D5E
:10079C00FF3E031DCC2B7308FF3A800575080F39FB
:1007AC000A128A11BD240A128A1183120313280813
:1007BC0084008317291C83130130F3002A0CF400E6
:1007CC00F40C740C0739013EED2B0310F30DFF3EB6
:1007DC00031DEB2B730880041A30F300F30BF42B7E
:1007EC00000083120313280884008317291C831329
:1007FC000130F3002A0CF400F40C740C0739013EA0
:10080C00092C0310F30DFF3E031D072C7308FF3A50
:10081C008005080028308400760883138000840A41
:10082C0077088000840A78088000840A79088000A0
:10083C00840A7A0880000030831203132906031DF2
:10084C00292C05302806031D2C2C2D2C312C83161D
:10085C00031385014C2C00302906031D372C063060
:10086C002806031D3A2C3B2C3F2C831603138601C0
:10087C004C2C00302906031D452C07302806031D7F
:10088C00482C492CBC2C8316031387013430FC00F4
:10089C00F130FB00FB0B502CFC0B502C552C033077
:1008AC000A128A1127230A128A110D30FC00FB3020
:1008BC00FB00FB0B5F2CFC0B5F2C642C03300A122F
:1008CC008A1127230A128A112A30FC008D30FB0072
:1008DC00FB0B6E2CFC0B6E2C732C03300A128A1142
:1008EC0027230A128A1102300A128A1127230A12AC
:1008FC008A1102300A128A1127230A128A1108302F
:10090C000A128A1127230A128A1100300A128A113C
:10091C0027230A128A1106300A128A1127230A1277
:10092C008A110830FD007D157D08FB000430031092
:10093C00FB0CFF3E031D9D2C7B080F390A128A11FC
:10094C0027230A128A117D080F390A128A112723CC
:10095C000A128A1100300A128A1127230A128A11EC
:10096C0001300A128A1127230A128A110800F20098
:10097C00721CC12CC22CD72C8312031328088400A0
:10098C008317291C83130130F0002B080739013E13
:10099C00D12C0310F00DFF3E031DCF2C70088004EA
:1009AC00EC2C83120313280884008317291C83134F
:1009BC000130F0002B080739013EE62C0310F00D36
:1009CC00FF3E031DE42C7008FF3A8005F21CEF2C4F
:1009DC00F02C062D280884008317291C8313013062
:1009EC00F0002B0CF100F10C710C0739013E002DBD
:1009FC000310F00DFF3E031DFE2C700880041C2D0F
:100A0C00280884008317291C83130130F0002B0C59
:100A1C00F100F10C710C0739013E162D0310F00D8D
:100A2C00FF3E031D142D7008FF3A8005721D1F2D0B
:100A3C00202D332D280884008317291C83130130A3
:100A4C00F0002C080739013E2D2D0310F00DFF3E50
:100A5C00031D2B2D70088004462D28088400831755
:100A6C00291C83130130F0002C080739013E402D5E
:100A7C000310F00DFF3E031D3E2D7008FF3A80055C
:100A8C00F21D492D4A2D602D280884008317291C3E
:100A9C0083130130F0002C0CF100F10C710C0739B0
:100AAC00013E5A2D0310F00DFF3E031D582D70080A
:100ABC008004762D280884008317291C83130130A9
:100ACC00F0002C0CF100F10C710C0739013E702D6B
:100ADC000310F00DFF3E031D6E2D7008FF3A8005CC
:100AEC0008008316031788018901233084008312C0
:100AFC0003132F0883138000840A30088000840AB3
:100B0C0031088000840A32088000840A330880008F
:100B1C007630840023088000840A24088000840A2C
:100B2C0025088000840A26088000840A2708800093
:100B3C000A128A1110240A128A110A128A11E3224B
:100B4C000A128A1100300A128A1127230A128A11FA
:100B5C0001300A128A1127230A128A1108300A124C
:100B6C008A1127230A128A1100300A128A112723AC
:100B7C000A128A110130F6000A128A1103230A1292
:100B8C008A1183120313AD010A128A11F2220A127E
:100B9C008A1183120313AE002D08C03EA00004304E
:100BAC000310A00CFF3E031DD62D20080F390A128E
:100BBC008A1127230A128A11831203132D08C03EAF
:100BCC000F390A128A1127230A128A11831203136E
:100BDC002E080A128A117C230A128A110130831200
:100BEC000313AD0710302D02031CFD2DFE2D202EFE
:100BFC0000300A128A1127230A128A1101300A12B4
:100C0C008A1127230A128A1108300A128A11272303
:100C1C000A128A1100300A128A1127230A128A1129
:100C2C000F30F6000A128A1103230A128A1183125A
:100C3C000313AD01033083120313A2000830A1008B
:100C4C007630A000A00B282EA10B282EA20B282E4C
:100C5C000000CA2D0A128A110028831203130610F1
:100C6C00861406158615061A3C2E3D2E522E023081
:100C7C00F2000430F100BA30F000F00B432EF10B0F
:100C8C00432EF20B432E000083120313061E4F2E2D
:100C9C00502E4A2E3130D62F861A552E562E6B2EAC
:100CAC000230F2000430F100BA30F000F00B5C2E90
:100CBC00F10B5C2EF20B5C2E000083120313861ECC
:100CCC00682E692E632E3230D62F061B6E2E6F2E99
:100CDC00842E0230F2000430F100BA30F000F00B38
:100CEC00752EF10B752EF20B752E0000831203136B
:100CFC00061F812E822E7C2E3330D62F861B872EFC
:100D0C00882E9D2E0230F2000430F100BA30F00033
:100D1C00F00B8E2EF10B8E2EF20B8E2E000083120A
:100D2C000313861F9A2E9B2E952E4130D62F061418
:100D3C00861006158615061AA42EA52EBA2E02307C
:100D4C00F2000430F100BA30F000F00BAB2EF10BD6
:100D5C00AB2EF20BAB2E000083120313061EB72E24
:100D6C00B82EB22E3430D62F861ABD2EBE2ED32ED0
:100D7C000230F2000430F100BA30F000F00BC42E57
:100D8C00F10BC42EF20BC42E000083120313861E2B
:100D9C00D02ED12ECB2E3530D62F061BD62ED72EBD
:100DAC00EC2E0230F2000430F100BA30F000F00BFF
:100DBC00DD2EF10BDD2EF20BDD2E00008312031362
:100DCC00061FE92EEA2EE42E3630D62F861BEF2E88
:100DDC00F02E052F0230F2000430F100BA30F00092
:100DEC00F00BF62EF10BF62EF20BF62E0000831202
:100DFC000313861F022F032FFD2E4230D62F06140D
:100E0C00861406118615061A0C2F0D2F222F023070
:100E1C00F2000430F100BA30F000F00B132FF10B9C
:100E2C00132FF20B132F000083120313061E1F2F18
:100E3C00202F1A2F3730D62F861A252F262F3B2FEF
:100E4C000230F2000430F100BA30F000F00B2C2F1D
:100E5C00F10B2C2FF20B2C2F000083120313861E88
:100E6C00382F392F332F3830D62F061B3E2F3F2FDC
:100E7C00542F0230F2000430F100BA30F000F00BC5
:100E8C00452FF10B452FF20B452F00008312031356
:100E9C00061F512F522F4C2F3930D62F861B572F10
:100EAC00582F6D2F0230F2000430F100BA30F000F0
:100EBC00F00B5E2FF10B5E2FF20B5E2F00008312F6
:100ECC000313861F6A2F6B2F652F4330D62F061402
:100EDC00861406158611061A742F752F8A2F023068
:100EEC00F2000430F100BA30F000F00B7B2FF10B64
:100EFC007B2FF20B7B2F000083120313061E872F10
:100F0C00882F822F2A30D62F861A8D2F8E2FA32F23
:100F1C000230F2000430F100BA30F000F00B942FE4
:100F2C00F10B942FF20B942F000083120313861EE7
:100F3C00A02FA12F9B2F3030D62F061BA62FA72F0B
:100F4C00BC2F0230F2000430F100BA30F000F00B8C
:100F5C00AD2FF10BAD2FF20BAD2F0000831203134D
:100F6C00061FB92FBA2FB42F2330D62F861BBF2FB5
:100F7C00C02FD52F0230F2000430F100BA30F0004F
:100F8C00F00BC62FF10BC62FF20BC62F00008312ED
:100F9C000313861FD22FD32FCD2F4430D62F6E3074
:100FAC0008000A128A11DE220A128A11AF000A12F4
:100FBC008A11DF220A128A11B0000A128A11E02269
:100FCC000A128A11B1000A128A11E1220A128A113C
:100FDC00B2000A128A11E2220A128A11B300A80185
:100FEC00A901AA01AB01AC01AD01AE0183010A124A
:040FFC008A11772DB2
:04400E00F22FFF3F4F
:00000001FF
