:060000000A128A110C280F
:10000800FE00030EF2000A08F3000A128A11DE2F1E
:100018000A128A110F28831603130A128A15AF25AC
:100028000A128A11D0000A128A15B0250A128A11FA
:10003800D1000A128A15B1250A128A11D2000A12B1
:100048008A15B2250A128A11D3000A128A15B32515
:100058000A128A11D400831790308400B0300A1233
:100068008A15B4250A128A118313A0308400B83087
:100078000A128A15B4250A128A11F701F801F90142
:1000880083010A128A1148280A128A15BC250A1205
:100098008A1183160313061401087F39810001139E
:1000A8008B100B168B17BB3084005008831380000D
:1000B800840A51088000840A52088000840A530880
:1000C8008000840A54088000233084003B088000A4
:1000D800840A3C088000840A3D088000840A3E089F
:1000E8008000840A3F0880000A128A1128250A1213
:1000F8008A110A128A15CA250A128A1175088316E6
:100108000313CF007408CE0000300A128A110D279D
:100118000A128A1101300A128A110D270A128A114D
:100128007F2A08300A128A110D270A128A11003014
:100138000A128A110D270A128A1132308312031308
:10014800A3008030A4000A128A1574260A128A11A4
:10015800003083120313AF000030AE000330AD004F
:10016800FF30AC00831603134E0883120313A0005C
:10017800831603134F0883120313A100A201A301DE
:100188000030A7000030A6001330A5008830A40076
:100198000A128A15BA260A128A118312031323082F
:1001A800B3002208B2002108B1002008B0000A12EA
:1001B8008A1178270A128A11831203132F088316CB
:1001C8000313CD00831203132E0883160313CC00E8
:1001D800831203132D0883160313CB008312031312
:1001E8002C0883160313CA00003083120313AF00D0
:1001F8000030AE000330AD00E830AC0083160313C6
:100208004D0883120313B300831603134C0883129B
:100218000313B200831603134B0883120313B100B0
:10022800831603134A0883120313B0000A128A11B3
:1002380078270A128A11831203132F0883160313CF
:10024800C300831203132E0883160313C2008312FC
:1002580003132D0883160313C100831203132C08FC
:1002680083160313C000003083120313A300003069
:10027800A2000330A100E830A000831603134D0844
:1002880083120313A700831603134C088312031366
:10029800A600831603134B0883120313A5008316C5
:1002A80003134A0883120313A4000A128A15552758
:1002B8000A128A1183120313230883160313C70033
:1002C80083120313220883160313C6008312031331
:1002D800210883160313C50083120313200883160D
:1002E8000313C400A83083120313D8001D30D900AB
:1002F80083160313430883120313DD0083160313C5
:10030800420883120313DC00831603134108831287
:100318000313DB0083160313400883120313DA0068
:1003280083160313470883120313E100831603138C
:10033800460883120313E00083160313450883124B
:100348000313DF0083160313440883120313DE002C
:100358000A128A15FF250A128A110C300A128A110C
:100368000D270A128A1100300A128A110D270A1263
:100378008A11A83083120313A3000030A4000A12C4
:100388008A1574260A128A118C2A08300A128A11D0
:100398000D270A128A1100300A128A110D270A1233
:1003A8008A11113083120313A3008030A4000A12AB
:1003B8008A1574260A128A11003083120313AF00BB
:1003C8000030AE000330AD00FF30AC0083160313DD
:1003D8004E0883120313A000831603134F088312D9
:1003E8000313A100A201A3010030A7000030A6005A
:1003F8000030A5006430A4000A128A15BA260A1231
:100408008A11831203132308B3002208B2002108BB
:10041800B1002008B0000A128A1178270A128A113E
:10042800831203132D0883160313C90083120313C1
:100438002C0883160313C800A83083120313D800AE
:100448003B30D90083160313490883120313DB00DA
:1004580083160313480883120313DA000A128A1555
:10046800FF250A128A110C300A128A110D270A1266
:100478008A1100300A128A110D270A128A11BD2921
:1004880008300A128A110D270A128A1100300A123E
:100498008A110D270A128A11013083120313A3004F
:1004A8008030A4000A128A1574260A128A11A8300C
:1004B80083120313D8002930D900831603134F0879
:1004C80083120313DB00831603134E0883120313EE
:1004D800DA000A128A15FF250A128A110C300A124C
:1004E8008A110D270A128A1100300A128A110D2763
:1004F8000A128A11BD29831603132708003A031923
:100508009528013A0319C929033A0319442A8C2A60
:10051800033083160313BA000830B9007630B800E8
:10052800B80B942AB90B942ABA0B942A00007D2898
:100538000A128A110C2883120313470884008313B4
:10054800000884000A128A150A200A128A11253A1C
:10055800031DAF2AB02A9C2B47088400013080076E
:10056800F701F8010030F900FF3083160313A500E6
:10057800FF30A60083120313D001D82AF9144708C4
:10058800840001308007D82A0130D000D82A4708D3
:100598008400000884000A128A150A200A128A11A7
:1005A800303A0319C22AC82A50080319DC2ADD2A5E
:1005B800CB2A4708A4004808A5000A128A15A927CB
:1005C8000A128A11831203132508F8002408F70079
:1005D800F81FEF2AF02AF62A7914F709F809F70A1A
:1005E8000319F80A4708840083130008D200520848
:1005F80084000A128A150A200A128A11D1000C2BCB
:100608000130D207142B6930D100142BD101142BDF
:1006180051086C3A0319042B193A0319072B0A2BB2
:10062800520884000A128A150A200A128A11753A99
:10063800031D1F2B202B742B492B4808840000080E
:10064800C90002308007490884000008CA00840AEB
:100658000008CB004A08CC004B08CD00CE01CF01E2
:10066800512B480884000008C90004308007490855
:1006780084000008CC00840A0008CD00840A000821
:10068800CE00840A0008CF00512B5108693A03199B
:10069800212B053A0319352B512B470884005208A2
:1006A800013E8000692B4508BA004608BB004F0888
:1006B800BF004E08BE004D08BD004C08BC000A1221
:1006C8008A1178260A128A11B52B520884000A1258
:1006D8008A150A200A128A11753A0319572B742BA6
:1006E80047088400000884000A128A150A200A12A2
:1006F8008A11253A031D812B822B942B47088400ED
:10070800013080072530A0000030A1004508A20074
:100718004608A3000A128A11D8250A128A11B52B95
:100728008312031347088400013083138007B52B15
:1007380047088400000884000A128A150A200A1251
:100748008A11C900CA014908A0004A08A100450841
:10075800A2004608A3000A128A11D8250A128A1193
:10076800942B0800F600761CBA2BBB2BD02B8316D3
:100778000313200884008317211C83130130F4001D
:1007880023080739013ECA2B0310F40DFF3E031D51
:10079800C82B74088004E52B8316031320088400F3
:1007A8008317211C83130130F40023080739013E05
:1007B800DF2B0310F40DFF3E031DDD2B7408FF3AF9
:1007C8008005F61CE82BE92BFF2B200884008317F3
:1007D800211C83130130F400230CF500F50C750C73
:1007E8000739013EF92B0310F40DFF3E031DF72BCB
:1007F80074088004152C200884008317211C831397
:100808000130F400230CF500F50C750C0739013E96
:100818000F2C0310F40DFF3E031D0D2C7408FF3A36
:100828008005761D182C192C2C2C20088400831781
:10083800211C83130130F40024080739013E262CBB
:100848000310F40DFF3E031D242C740880043F2C74
:10085800200884008317211C83130130F400240826
:100868000739013E392C0310F40DFF3E031D372CC8
:100878007408FF3A8005F61D422C432C592C200899
:1008880084008317211C83130130F400240CF50025
:10089800F50C750C0739013E532C0310F40DFF3E7F
:1008A800031D512C740880046F2C200884008317C2
:1008B800211C83130130F400240CF500F50C750C91
:1008C8000739013E692C0310F40DFF3E031D672C08
:1008D8007408FF3A8005080083120313A2008316E8
:1008E8000313200884008317211C8313013083120B
:1008F8000313A0008316031322080739013E83124D
:100908000313882C0310A00DFF3E031D862C20081E
:1009180080042208A00004300310A00CFF3E031D31
:10092800902C20080F390A128A11B6230A128A114C
:1009380083160313200884008317211C83130130B6
:1009480083120313A00083160313220C83120313CC
:10095800A100A10C210C0739013EB42C0310A00DF5
:10096800FF3E031DB22C20088004193083120313A4
:10097800A000A00BBD2CC02C8316031320088400F4
:100988008317211C8313013083120313A0008316DD
:100998000313220C83120313A100A10C210C0739A5
:1009A800013ED82C0310A00DFF3E031DD62C2008B5
:1009B800FF3A800522080F390A128A11B6230A1253
:1009C8008A1183160313200884008317211C8313BC
:1009D800013083120313A00083160313220C831221
:1009E8000313A100A10C210C0739013EFD2C0310B3
:1009F800A00DFF3E031DFB2C200880041930831234
:100A08000313A000A00B062D092D8316031320083D
:100A180084008317211C8313013083120313A00061
:100A280083160313220C83120313A100A10C210CBB
:100A38000739013E212D0310A00DFF3E031D1F2D78
:100A48002008FF3A80050800A030840083120313B1
:100A5800230883138000840A24088000840A250858
:100A68008000840A26088000840A27088000003055
:100A7800831603132106031D432D05302006031D8D
:100A8800462D472D492D8501602D00302106031D77
:100A98004F2D06302006031D522D532D552D86014E
:100AA800602D00302106031D5B2D07302006031D35
:100AB8005E2D5F2DD72D8701343083120313A900D3
:100AC800F130A800A80B662DA90B662D03300A1279
:100AD8008A110D270A128A110D3083120313A900F7
:100AE800FB30A800A80B762DA90B762D03300A122F
:100AF8008A110D270A128A112A3083120313A900BA
:100B08008D30A800A80B862DA90B862D03300A125C
:100B18008A110D270A128A1102300A128A110D272A
:100B28000A128A1102300A128A110D270A128A1132
:100B380008300A128A110D270A128A1100300A1287
:100B48008A110D270A128A1106300A128A110D27F6
:100B58000A128A11083083120313AA002A152A08D8
:100B6800A80004300310A80CFF3E031DB62D28086A
:100B78000F390A128A110D270A128A1183120313D8
:100B88002A080F390A128A110D270A128A11003011
:100B98000A128A110D270A128A1101300A128A11C3
:100BA8000D270A128A11080083120313220823044E
:100BB8000319DF2DE02DE62D22082304031DE52D62
:100BC800E62DED2D20080A128A11FE270A128A1135
:100BD800772E2208093EA40023080318013E003E90
:100BE800A500240884008317251C83130008A60089
:100BF800840A0008A700260827040319042E052ED6
:100C0800372E2208093EA40023080318013E003E9F
:100C1800A500240884008317251C83130008A60058
:100C2800840A0008A7002208023EA8002308031827
:100C3800013E003EA900280884008317291C83135D
:100C48000008AA00840A0008AB002B08803AAC0010
:100C58002708803A2C02031D332E26082A0203187F
:100C6800362E372E772E831203132208840083171B
:100C7800231C83130008A400840A0008A500220886
:100C8800023EA60023080318013E003EA7002608DE
:100C980084008317271C831300082407A90025084C
:100CA800A8000318A80A801F5A2EA803831203134A
:100CB8002808AA002908840083172A1C83132008FF
:100CC80080002208023EA40023080318013E003ECB
:100CD800A500240884008317251C8313013080078E
:100CE800840A0318800A0800013083120313C00025
:100CF8007808C2007708C1001F30C3000030C40064
:100D080083160317AF01D42EFF3083120313C307D2
:100D18000318C40AFF30C4074308903E840000301B
:100D2800A3000030A2000030A1000A30A0003F0854
:100D3800A7003E08A6003D08A5003C08A4000A122A
:100D48008A1555270A128A11831203132008303E88
:100D580083178000C001FF30C1070318C20AFF30A3
:100D6800C2070030AF000030AE000030AD000A30DE
:100D7800AC003F08B3003E08B2003D08B1003C0893
:100D8800B0000A128A1178270A128A1183120313F3
:100D98002F08BF002E08BE002D08BD002C08BC007F
:100DA80083120313430844040319DB2EDC2EFA2EA6
:100DB8003F083E043D043C04031DE32EE42E882E28
:100DC8004008031DE82EE92E882E4208803AFF00CD
:100DD80080307F02031DF22E01304102031CF52EE4
:100DE800F62EFA2EF918F92EFA2E882E83120313EE
:100DF8003A08B3003B08B4004308903EB5004208E7
:100E0800B7004108B6000A128A1502270A128A1189
:100E1800080083120313A20083160313200884001A
:100E28008317211C8313013083120313A000831638
:100E3800031322080739013E83120313252F0310D9
:100E4800A00DFF3E031D232F2008FF3A800522082E
:100E58000A128A11B6230A128A118316031320086C
:100E680084008317211C8313013083120313A0000D
:100E780083160313220C83120313A100A10C210C67
:100E88000739013E492F0310A00DFF3E031D472FD0
:100E9800200880040B3083120313A1006130A000E6
:100EA800A00B542FA10B542F592F8316031320087E
:100EB80084008317211C8313013083120313A000BD
:100EC80083160313220C83120313A100A10C210C17
:100ED8000739013E712F0310A00DFF3E031D6F2F30
:100EE8002008FF3A80050800003083120313B7007A
:100EF8000030B6000030B5000030B4002F082E04D2
:100F08002D042C040319892F8A2FD52F0130B800FE
:100F1800982F0130F5000310AC0DAD0DAE0DAF0DDF
:100F2800F50B8F2F0130B807AF1F9B2F9C2F8D2FEC
:100F38000130F5000310B40DB50DB60DB70DF50B66
:100F48009E2F2F083302031DB32F2E083202031DD4
:100F5800B32F2D083102031DB32F2C083002031CB8
:100F6800B62FB72FC62F2C08B0022D08031C2D0F43
:100F7800B1022E08031C2E0FB2022F08031C2F0FDC
:100F8800B302341401300310AF0CAE0CAD0CAC0C32
:100F9800FF3E031DC72F0130B802031DD42FD52FE4
:100FA8009C2F3708AF003608AE003508AD0034086E
:100FB800AC0008008B1CE12FE22FF72F8230F100E4
:100FC800DD30F000F00BE62FF10BE62FEB2F0130B0
:100FD80083160313A70703302702031CF42FF52FEA
:100FE800F62FA7018B1073088A00720E8300FE0E7D
:060FF8007E0E0900080056
:10100000FF1B0A2883137F1883170008840A03191B
:10101000FF0A080008308A000408840A82070034A6
:10102000203420342034563461346C346F347234BC
:1010300020344134443443343A34203420340034AE
:1010400050346F347234633465346E3474346134C4
:101050006A3465343A34003425346C3475342E34B3
:101060002534303433346C34753420345634003401
:101070002034203420342534753420342034203476
:10108000003456346F346C34743461346A346534EB
:101090003A34003425347534203425342534003472
:101B5E00073400341A342C343E3464008001840A75
:101B6E000406031900340406B52D0130831603173D
:101B7E00880089018130831203139F008030831601
:101B8E0003139F0008000330F600F60BCC2D8312D2
:101B9E0003139F149F18D42DD52DD12D1E08F5009B
:101BAE00831603131E08F40008008312031355084E
:101BBE00D700EE2D5308C5005408C6005730C70095
:101BCE005608C8000A128A119F220A128A15831219
:101BDE000313570884000A128A150A200A128A155E
:101BEE00003A031DFB2DFC2DE12DD301D40108007D
:101BFE005A3083120313E3005808E4000030E50066
:101C0E00E601E701ED01EE016430D3000030D400AF
:101C1E005908D5006330D6000A128A15DC250A123F
:101C2E008A158312031366085807E20062088400BF
:101C3E00831380010800F401F50183120313201CA5
:101C4E00292E2A2E302E2208F4070318F50A23080F
:101C5E00F50701300310A20DA30DFF3E031D312E1B
:101C6E0001300310A10CA00CFF3E031D382E2008DE
:101C7E002104031D432E442E242E7508A100740842
:101C8E00A000080083120313B101B201662E3008C2
:101C9E00F400F5017408A0007508A1002E08A2003A
:101CAE002F08A3000A128A11D8250A128A150130AC
:101CBE0083120313B1070318B20A0030B2073108BA
:101CCE002D07F4007408840083170008B000300854
:101CDE00031D722E732E4E2E080083120313A801BD
:101CEE00A9019D2E28082307A6002408A500031885
:101CFE00A50AA81F832EA503831203132508A70088
:101D0E002708FF00260884000A128A1500200A12EE
:101D1E008A150A128A1170240A128A15013083124A
:101D2E000313A8070318A90A0030A90728082307D8
:101D3E00A6002408A5000318A50AA81FA72EA50310
:101D4E00831203132508A7002708FF002608840026
:101D5E000A128A1500200A128A15003A031DB82E9F
:101D6E00B92E792E0800003083120313AB00003019
:101D7E00AA000030A9000030A800201CC72EC82ED3
:101D8E00DF2E2408A807250803110318013E0319A6
:101D9E00D12EA907260803110318013E0319D82EC8
:101DAE00AA07270803110318013E0319DF2EAB07FC
:101DBE000130F4000310A40DA50DA60DA70DF40B14
:101DCE00E12E01300310A30CA20CA10CA00CFF3EBF
:101DDE00031DE92E2308220421042004031DF82EDE
:101DEE00F92EC42E2B08A3002A08A2002908A10050
:101DFE002808A0000800791C052F062F132F831228
:101E0E0003133508AD003308AE003408AF000A12D4
:101E1E008A1549260A128A1583120313B71F182F23
:101E2E00192F1B2FB601B701B801B901352F20307C
:101E3E0083120313A0000030A1003308A20034085F
:101E4E00A3000A128A11D8250A128A1501308312AC
:101E5E000313B8070318B90A0030B9073908803AD6
:101E6E00F6003708803A7602031D3F2F36083802F7
:101E7E00031C422F432F1E2F7918462F472F542F06
:101E8E00831203133508AD003308AE003408AF00DB
:101E9E000A128A1549260A128A150800831203139C
:101EAE00230822042104200403195E2F5F2FA02F84
:101EBE000130F5006D2F0130F4000310A00DA10DBF
:101ECE00A20DA30DF40B642F0130F507A31F702F85
:101EDE00712F622F23082702031D7F2F220826024F
:101EEE00031D7F2F21082502031D7F2F20082402AA
:101EFE00031C822F832F912F2008A4022108031C7C
:101F0E00210FA5022208031C220FA6022308031C80
:101F1E00230FA70201300310A30CA20CA10CA00CDE
:101F2E00FF3E031D922F0130F502031D9F2FA02FA0
:101F3E00712F2708A3002608A2002508A100240857
:101F4E00A000080083120313A701A801240884002F
:101F5E008313000884000A128A150A200A128A15B1
:101F6E002A3A031DBB2FBC2FEA2F24088400013010
:101F7E008007250884000008F600023080077608E6
:101F8E0084000008A700840A0008A800FB2F280878
:101F9E00A1002708A0000A30A2000030A3000A12F8
:101FAE008A1522260A128A15831203132608200781
:101FBE00A7000030031801302107A8002408840070
:101FCE0001308313800724088400000884000A125D
:101FDE008A150A200A128A15D03EA6000A30260259
:101FEE00031CFA2FFB2FCE2F2808A5002708A400CC
:021FFE000800D9
:04400E00F22FFF3F4F
:00000001FF
