:060000000A128A110C280F
:10000800FE00030EF2000A08F3000A128A15CA2D30
:100018000A128A110F28831603130A128A156925F2
:100028000A128A11D1000A128A156A250A128A113F
:10003800D2000A128A156B250A128A11D3000A12F5
:100048008A156C250A128A11D4000A128A156D25A0
:100058000A128A11D500831790308400B0300A1232
:100068008A156E250A128A118313C9308400D1308B
:100078000A128A156E250A128A11F601F701F8018B
:10008800F90183010A128A114928033083160317DC
:1000980088008901FF30831603138500FF3086002E
:1000A80001087F3981000A128A1576250A128A11F9
:1000B800B330840083160313510883138000840A25
:1000C80052088000840A53088000840A540880007B
:1000D800840A550880002430840033088000840A8C
:1000E80034088000840A35088000840A36088000B5
:1000F800840A370880000A128A1148250A128A11D0
:100108008B170B168316031301130130C2008312D9
:100118000313861890289128AE28831603134203E8
:10012800031D97289828AE28343083160313A1009E
:10013800F130A000A00B9E28A10B9E288312031368
:100148008618A728A828AE280130F906861CAD28ED
:10015800AE28AA28003083128618013083160313AC
:10016800C20079080A128A1542260A128A117508ED
:1001780083160313C8007408C70000300A128A11D6
:100188002D270A128A1101300A128A112D270A1204
:100198008A1108300A128A112D270A128A11003092
:1001A8000A128A112D270A128A117908031DDD28DF
:1001B800DE28EA280D3083120313A4008030A5003E
:1001C8000A128A1574260A128A11F5281730831222
:1001D8000313A4008030A5000A128A1574260A1297
:1001E8008A110C300A128A112D270A128A1100303E
:1001F8000A128A112D270A128A118316031350082E
:10020800031D07290829192A003083120313AF0098
:100218000030AE000330AD00FF30AC00831603138E
:10022800470883120313A000831603134808831298
:100238000313A100A201A3010030A7000030A6000B
:100248001330A5008830A4000A128A15BA260A12AB
:100258008A11831203132308B3002208B20021086D
:10026800B1002008B0000A128A1198270A128A11D0
:10027800831203132F0883160313C6008312031374
:100288002E0883160313C500831203132D08831643
:100298000313C400831203132C0883160313C3002B
:1002A800003083120313AF000030AE000330AD00FE
:1002B800E830AC0083160313460883120313B30017
:1002C80083160313450883120313B200831603131E
:1002D800440883120313B1008316031343088312DF
:1002E8000313B0000A128A1198270A128A1183127E
:1002F80003132F0883160313BB00831203132E085E
:1003080083160313BA00831203132D0883160313ED
:10031800B900831203132C0883160313B8000030A6
:1003280083120313A3000030A2000330A100E830B9
:10033800A00083160313460883120313A70083162D
:100348000313450883120313A600831603134408F6
:1003580083120313A50083160313430883120313A0
:10036800A4000A128A1555270A128A118312031348
:10037800230883160313BF0083120313220883166E
:100388000313BE0083120313210883160313BD0051
:1003980083120313200883160313BC00A3308312AF
:1003A8000313D9000130DA00831603133B088312C4
:1003B8000313DE00831603133A0883120313DD00C8
:1003C80083160313390883120313DC0083160313FF
:1003D800380883120313DB00831603133F088312C4
:1003E8000313E200831603133E0883120313E1008C
:1003F800831603133D0883120313E00083160313C7
:100408003C0883120313DF000A128A15A7250A1273
:100418008A11A33083120313A4000030A5000A1226
:100428008A1574260A128A11982A5003031D1D2A58
:100438001E2A762A003083120313AF000030AE0064
:100448000330AD00FF30AC00831603134708831256
:100458000313A00083160313480883120313A10093
:10046800A201A3010030A7000030A6000030A500BB
:100478006430A4000A128A15BA260A128A11831255
:1004880003132308B3002208B2002108B100200892
:10049800B0000A128A1198270A128A1183120313CC
:1004A8002D0883160313C100831203132C08831627
:1004B8000313C000A33083120313D9002830DA00D5
:1004C80083160313410883120313DC0083160313F6
:1004D800400883120313DB000A128A15A7250A12A3
:1004E8008A110D2AA33083120313D9002130DA00B0
:1004F80083160313480883120313DC0083160313BF
:10050800470883120313DB000A128A15A7250A126B
:100518008A11A33083120313A4000030A5000A1225
:100528008A1574260A128A11023083160313A20050
:100538000430A100B930A000A00BA02AA10BA02A6A
:10054800A20BA02AA72A8B280A128A110C28831228
:100558000313480884008313000884000A128A15CC
:100568000A200A128A11253A031DBB2ABC2AA82B85
:100578004808840001308007F601F7010030F800D0
:10058800FF3083160313CE00FF30CF00831203130E
:10059800D101E42AF8144808840001308007E42ACD
:1005A8000130D100E42A48088400000884000A12B7
:1005B8008A150A200A128A11303A0319CE2AD42A37
:1005C80051080319E82AE92AD72A4808A400490843
:1005D800A5000A128A15A9270A128A118312031381
:1005E8002508F7002408F600F71FFB2AFC2A022B2F
:1005F8007814F609F709F60A0319F70A4808840077
:1006080083130008D300530884000A128A150A20AD
:100618000A128A11D200182B0130D307202B693017
:10062800D200202BD201202B52086C3A0319102B30
:10063800193A0319132B162B530884000A128A152A
:100648000A200A128A11753A031D2B2B2C2B802B9A
:10065800552B490884000008CA00023080074A0860
:1006680084000008CB00840A0008CC004B08CD00A9
:100678004C08CE00CF01D0015D2B4908840000084A
:10068800CA00043080074A0884000008CD00840AA4
:100698000008CE00840A0008CF00840A0008D000B1
:1006A8005D2B5208693A03192D2B053A0319412B82
:1006B8005D2B480884005308013E8000752B4608CE
:1006C800BB004708BC005008C0004F08BF004E08D8
:1006D800BE004D08BD000A128A1198260A128A1116
:1006E800C12B530884000A128A150A200A128A119B
:1006F800753A0319632B802B48088400000884008E
:100708000A128A150A200A128A11253A031D8D2B0E
:100718008E2BA02B48088400013080072530A000CC
:100728000030A1004608A2004708A3000A128A1157
:10073800F8250A128A11C12B831203134808840072
:10074800013083138007C12B480884000008840007
:100758000A128A150A200A128A11CA00CB014A080D
:10076800A0004B08A1004608A2004708A3000A12EF
:100778008A11F8250A128A11A02B08008312031384
:10078800A000201CC82BC92BDE2B83160313490895
:10079800840083174A1C83130130F4004C0807397E
:1007A800013ED82B0310F40DFF3E031DD62B740811
:1007B8008004F32B831603134908840083174A1C0B
:1007C80083130130F4004C080739013EED2B031068
:1007D800F40DFF3E031DEB2B7408FF3A80058312CE
:1007E8000313A01CF82BF92B112C831603134908AB
:1007F800840083174A1C83130130F4004C0CF50065
:10080800F50C750C0739013E0B2C0310F40DFF3E57
:10081800031D092C74088004292C83160313490826
:10082800840083174A1C83130130F4004C0CF50034
:10083800F50C750C0739013E232C0310F40DFF3E0F
:10084800031D212C7408FF3A800583120313201D11
:100858002E2C2F2C442C831603134908840083174D
:100868004A1C83130130F4004D080739013E3E2C21
:100878000310F40DFF3E031D3C2C74088004592C12
:10088800831603134908840083174A1C8313013015
:10089800F4004D080739013E532C0310F40DFF3EB8
:1008A800031D512C7408FF3A800583120313A01D01
:1008B8005E2C5F2C772C831603134908840083175A
:1008C8004A1C83130130F4004D0CF500F50C750C2F
:1008D8000739013E712C0310F40DFF3E031D6F2CE8
:1008E800740880048F2C8316031349088400831727
:1008F8004A1C83130130F4004D0CF500F50C750CFF
:100908000739013E892C0310F40DFF3E031D872C87
:100918007408FF3A8005080083120313A3008316A6
:1009280003134908840083174A1C83130130831278
:100938000313A100831603134B080739013E8312E2
:100948000313A82C0310A10DFF3E031DA62C21089C
:1009580080042308A10004300310A10CFF3E031DEE
:10096800B02C21080F390A128A11C2230A128A11DF
:10097800831603134908840083174A1C8313013024
:1009880083120313A100831603134B0C8312031362
:10099800A200A20C220C0739013ED42C0310A10D91
:1009A800FF3E031DD22C2108800419308312031343
:1009B800A100A10BDD2CE02C831603134908840049
:1009C80083174A1C8313013083120313A100831673
:1009D80003134B0C83120313A200A20C220C073939
:1009E800013EF82C0310A10DFF3E031DF62C210833
:1009F800FF3A800523080F390A128A11C2230A1206
:100A08008A11831603134908840083174A1C831329
:100A1800013083120313A100831603134B0C8312B6
:100A28000313A200A20C220C0739013E1D2D03104E
:100A3800A10DFF3E031D1B2D2108800419308312D0
:100A48000313A100A10B262D292D83160313490892
:100A5800840083174A1C8313013083120313A100F7
:100A6800831603134B0C83120313A200A20C220C4F
:100A78000739013E412D0310A10DFF3E031D3F2DF7
:100A88002108FF3A80050800C93084008312031347
:100A9800240883138000840A25088000840A260815
:100AA8008000840A27088000840A28088000003013
:100AB800831603134A06031D632D05304906031DDB
:100AC800662D672D692D8501802D00304A06031D8E
:100AD8006F2D06304906031D722D732D752D860165
:100AE800802D00304A06031D7B2D07304906031D63
:100AF8007E2D7F2DF72D8701343083120313AA0032
:100B0800F130A900A90B862DAA0B862D03300A12F5
:100B18008A112D270A128A110D3083120313AA0095
:100B2800FB30A900A90B962DAA0B962D03300A12AB
:100B38008A112D270A128A112A3083120313AA0058
:100B48008D30A900A90BA62DAA0BA62D03300A12D9
:100B58008A112D270A128A1102300A128A112D27AA
:100B68000A128A1102300A128A112D270A128A11D2
:100B780008300A128A112D270A128A1100300A1227
:100B88008A112D270A128A1106300A128A112D2776
:100B98000A128A11083083120313AB002B152B0895
:100BA800A90004300310A90CFF3E031DD62D290807
:100BB8000F390A128A112D270A128A118312031378
:100BC8002B080F390A128A112D270A128A110030B0
:100BD8000A128A112D270A128A1101300A128A1163
:100BE8002D270A128A1108008312031322082304EE
:100BF8000319FF2D002E062E22082304031D052E9F
:100C0800062E0D2E20080A128A11FE270A128A11B2
:100C1800972E2208093EA40023080318013E003E2F
:100C2800A500240884008317251C83130008A60048
:100C3800840A0008A700260827040319242E252E55
:100C4800572E2208093EA40023080318013E003E3F
:100C5800A500240884008317251C83130008A60018
:100C6800840A0008A7002208023EA80023080318E7
:100C7800013E003EA900280884008317291C83131D
:100C88000008AA00840A0008AB002B08803AAC00D0
:100C98002708803A2C02031D532E26082A0203181F
:100CA800562E572E972E831203132208840083177B
:100CB800231C83130008A400840A0008A500220846
:100CC800023EA60023080318013E003EA70026089E
:100CD80084008317271C831300082407A90025080C
:100CE800A8000318A80A801F7A2EA80383120313EA
:100CF8002808AA002908840083172A1C83132008BF
:100D080080002208023EA40023080318013E003E8A
:100D1800A500240884008317251C8313013080074D
:100D2800840A0318800A0800013083120313C100E3
:100D38007708C3007608C2001F30C4000030C50021
:100D480083160317AF01F42EFF3083120313C40771
:100D58000318C50AFF30C5074408903E84000030D8
:100D6800A3000030A2000030A1000A30A000400813
:100D7800A7003F08A6003E08A5003D08A4000A12E7
:100D88008A1555270A128A11831203132008303E48
:100D980083178000C101FF30C2070318C30AFF3060
:100DA800C3070030AF000030AE000030AD000A309D
:100DB800AC004008B3003F08B2003E08B1003D084F
:100DC800B0000A128A1198270A128A118312031393
:100DD8002F08C0002E08BF002D08BE002C08BD003B
:100DE80083120313440845040319FB2EFC2E1A2F03
:100DF80040083F043E043D04031D032F042FA82E82
:100E08004108031D082F092FA82E4308803AFF0028
:100E180080307F02031D122F01304202031C152F60
:100E2800162F1A2FF818192F1A2FA82E831203130A
:100E38003B08B3003C08B4004408903EB5004308A2
:100E4800B7004208B6000A128A1502270A128A1148
:100E5800080083120313A3008316031349088400B0
:100E680083174A1C8313013083120313A1008316CE
:100E780003134B080739013E83120313452F031050
:100E8800A10DFF3E031D432F2108FF3A80052308CB
:100E98000A128A11C2230A128A11831603134908F7
:100EA800840083174A1C8313013083120313A100A3
:100EB800831603134B0C83120313A200A20C220CFB
:100EC8000739013E692F0310A10DFF3E031D672F4F
:100ED800210880040B3083120313A2006130A100A3
:100EE800A10B742FA20B742F792F831603134908B3
:100EF800840083174A1C8313013083120313A10053
:100F0800831603134B0C83120313A200A20C220CAA
:100F18000739013E912F0310A10DFF3E031D8F2FAE
:100F28002108FF3A80050800003083120313B70038
:100F38000030B6000030B5000030B4002F082E0491
:100F48002D042C040319A92FAA2FF52F0130B8005E
:100F5800B82F0130F5000310AC0DAD0DAE0DAF0D7F
:100F6800F50BAF2F0130B807AF1FBB2FBC2FAD2F2C
:100F78000130F5000310B40DB50DB60DB70DF50B26
:100F8800BE2F2F083302031DD32F2E083202031D54
:100F9800D32F2D083102031DD32F2C083002031C38
:100FA800D62FD72FE62F2C08B0022D08031C2D0FA3
:100FB800B1022E08031C2E0FB2022F08031C2F0F9C
:100FC800B302341401300310AF0CAE0CAD0CAC0CF2
:100FD800FF3E031DE72F0130B802031DF42FF52F44
:100FE800BC2F3708AF003608AE003508AD0034080E
:060FF800AC000800080037
:10100000FF1B0A2883137F1883170008840A03191B
:10101000FF0A080008308A000408840A82070034A6
:1010200025346C3475342E342534303433346C34F8
:10103000753420345634003456346F346C34743480
:1010400061346A34653420343134003456346F34BA
:101050006C34743461346A3465342034323400348E
:101060004134443443343D3425347534003425341C
:0A1070007534203425342534003493
:101AD200073400341A342C343E3464008001840A02
:101AE20004060319003404066F2D0330831603170E
:101AF200880089010130831203139F00803083160E
:101B020003139F000800831203135608D800962D72
:101B12005408C6005508C7005830C8005708C90005
:101B22000A128A11AB220A128A1583120313580869
:101B320084000A128A150A200A128A15003A031D25
:101B4200A32DA42D892DD401D50108005B30831269
:101B52000313E4005908E5000030E600E701E8015C
:101B6200EE01EF016530D4000030D5005A08D600EE
:101B72006430D7000A128A1584250A128A15831244
:101B8200031367085907E300630884008313800185
:101B920008008B1CCD2DCE2DE92D3430F100F13013
:101BA200F000F00BD22DF10BD22DD72D831203139F
:101BB2000618DC2DDD2DE82D013083160313D00726
:101BC20003305002031CE62DE72DE82DD0018B10C7
:101BD20073088A00720E8300FE0E7E0E0900F40165
:101BE200F50183120313201CF72DF82DFE2D220878
:101BF200F4070318F50A2308F50701300310A20DB4
:101C0200A30DFF3E031DFF2D01300310A10CA00CFC
:101C1200FF3E031D062E20082104031D112E122E45
:101C2200F22D7508A1007408A000080083120313A6
:101C3200B101B201342E3008F400F5017408A0009D
:101C42007508A1002E08A2002F08A3000A128A110B
:101C5200F8250A128A15013083120313B1070318FB
:101C6200B20A0030B20731082D07F400740884006C
:101C720083170008B0003008031D402E412E1C2E91
:101C8200080083120313A200023083120313A00080
:101C9200A00B492E00008330831203139F052208F4
:101CA200A00001300310A00DFF3E031D532E0310B0
:101CB200200D9F04063083120313A1002F30A000D1
:101CC200A00B612EA10B612E662E831203139F14AB
:101CD2009F186C2E6D2E692E1E08F50083160313B5
:101CE2001E08F400080083120313A901AA019D2E05
:101CF20029082407A7002508A6000318A60AA91F79
:101D0200832EA603831203132608A8002808FF00C7
:101D1200270884000A128A1500200A128A150A125C
:101D22008A1190240A128A15013083120313A9071B
:101D32000318AA0A0030AA0729082407A7002508C1
:101D4200A6000318A60AA91FA72EA603831203132F
:101D52002608A8002808FF00270884000A128A150E
:101D620000200A128A15003A031DB82EB92E792EC8
:101D72000800003083120313AB000030AA000030C9
:101D8200A9000030A800201CC72EC82EDF2E240870
:101D9200A807250803110318013E0319D12EA9072C
:101DA200260803110318013E0319D82EAA07270893
:101DB20003110318013E0319DF2EAB070130F400B3
:101DC2000310A40DA50DA60DA70DF40BE12E0130F5
:101DD2000310A30CA20CA10CA00CFF3E031DE92EC4
:101DE2002308220421042004031DF82EF92EC42EF8
:101DF2002B08A3002A08A2002908A1002808A00095
:101E02000800781C052F062F132F831203133508A1
:101E1200AD003308AE003408AF000A128A15172647
:101E22000A128A1583120313B71F182F192F1B2F9B
:101E3200B601B701B901BA01352F2030831203135D
:101E4200A0000030A1003308A2003408A3000A1247
:101E52008A11F8250A128A15013083120313B90771
:101E62000318BA0A0030BA073A08803AB8003708AD
:101E7200803A3802031D3F2F36083902031C422FD5
:101E8200432F1E2F7818462F472F542F83120313E8
:101E92003508AD003308AE003408AF000A128A15C7
:101EA20017260A128A150800831203132308220434
:101EB2002104200403195E2F5F2FA02F0130F500AB
:101EC2006D2F0130F4000310A00DA10DA20DA30D82
:101ED200F40B642F0130F507A31F702F712F622FAF
:101EE20023082702031D7F2F22082602031D7F2FAE
:101EF20021082502031D7F2F20082402031C822FA4
:101F0200832F912F2008A4022108031C210FA50270
:101F12002208031C220FA6022308031C230FA70278
:101F220001300310A30CA20CA10CA00CFF3E031D58
:101F3200922F0130F502031D9F2FA02F712F27082A
:101F4200A3002608A2002508A1002408A00008007A
:101F520083120313A801A901240884008313000833
:101F620084000A128A150A200A128A152A3A031DC7
:101F7200BB2FBC2FEA2F24088400013080072508DC
:101F820084000008A60002308007260884000008AA
:101F9200A800840A0008A900FB2F2908A10028082C
:101FA200A0000A30A2000030A3000A128A15F02510
:101FB2000A128A158312031327082007A80000308B
:101FC200031801302107A90024088400013083137B
:101FD200800724088400000884000A128A150A2057
:101FE2000A128A15D03EA7000A302702031CFA2FD4
:0E1FF200FB2FCE2F2908A5002808A400080008
:04400E00F22FFF3F4F
:00000001FF
