:060000000A128A110C280F
:10000800FE00030EF0000A08F1000A128A151E2EDF
:100018000A128A110F28831603130A128A11FA2763
:100028000A128A11EB000A128A11FB270A128A1196
:10003800EC000A128A11FC270A128A11ED000A1232
:100048008A11FD270A128A11EE000A128A11FE2768
:100058000A128A11EF008313A0308400D8300A12E4
:100068008A15E1250A128A116630840070300A1256
:100078008A15E1250A128A11FA01FB0183010A1285
:100088008A1146280A128A11EC270A128A110A12C2
:100098008A15E9250A128A11D830840083160313B9
:1000A8006B0883138000840A6C088000840A6D083A
:1000B8008000840A6E088000840A6F08800020305F
:1000C800840058088000840A59088000840A5A0865
:1000D8008000840A5B088000840A5C0880000A1299
:1000E8008A11F3230A128A1100300A128A116C2726
:1000F8000A128A1101300A128A116C270A128A110F
:1001080008300A128A116C270A128A1100300A1262
:100118008A116C270A128A110B30F8008030F90016
:100128000A128A15CB260A128A110C300A128A1171
:100138006C270A128A1100300A128A116C270A12D7
:100148008A110F30F8008030F9000A128A15CB2680
:100158000A128A1100300A128A11BD260A128A115F
:10016800770883160313E8007608E70001300A12BF
:100178008A11BD260A128A11770883160313EA002A
:100188007608E900003083120313A8000030A700A6
:100198000330A600FF30A500831603136708F2009A
:1001A8006808F300F401F5010030F9000030F800A8
:1001B8000130F700F330F6000A128A1511270A12E7
:1001C8008A11750883120313AC007408AB00730816
:1001D800AA007208A9000A128A1157260A128A115F
:1001E80083120313260883160313E60083120313EE
:1001F800250883160313E5006608F3006508F20076
:100208000A128A1501260A128A1100308312031372
:10021800A8000030A7000330A600FF30A500831611
:1002280003136908F2006A08F300F401F5010030CD
:10023800F9000030F8000030F7006430F6000A12C8
:100248008A1511270A128A11750883120313AC0044
:100258007408AB007308AA007208A9000A128A1170
:1002680057260A128A11831203132508FB0000304F
:10027800A8000030A7000330A600FF30A5008316B1
:1002880003136708F2006808F300F401F501003071
:10029800F9000030F8000030F7006430F6000A1268
:1002A8008A1511270A128A11750883120313AC00E4
:1002B8007408AB007308AA007208A9000A128A1110
:1002C80057260A128A118312031328088316031368
:1002D800E00083120313270883160313DF00831239
:1002E8000313260883160313DE008312031325085D
:1002F80083160313DD00003083120313A8000030B7
:10030800A7000330A600FF30A50083160313690871
:10031800F2006A08F300F401F5010030F90000303A
:10032800F8000030F7006430F6000A128A15112729
:100338000A128A11750883120313AC007408AB0003
:100348007308AA007208A9000A128A1157260A120D
:100358008A1183120313280883160313E4008312F7
:100368000313270883160313E300831203132608D5
:1003780083160313E200831203132508831603135D
:10038800E10008300A128A116C270A128A11033018
:100398000A128A116C270A128A11CC3083120313AD
:1003A800D1000130D20083160313600883120313AF
:1003B800D600831603135F0883120313D500831630
:1003C80003135E0883120313D400831603135D0816
:1003D80083120313D3000A128A1583260A128A117C
:1003E800CC30F8000030F9000A128A15CB260A1220
:1003F8008A110C300A128A116C270A128A110330EA
:100408000A128A116C270A128A11C0308312031348
:10041800D1000130D200831603136408831203133A
:10042800D60083160313630883120313D5008316BB
:100438000313620883120313D4008316031361089D
:1004480083120313D3000A128A1583260A128A110B
:10045800C030F8000030F9000A128A15CB260A12BB
:100468008A11823083120313E500DD30E400E40BC7
:100478003B2AE50B3B2AAE280A128A110C28831264
:100488000313420884008313000884000A128A15A3
:100498000A200A128A11253A031D532A542A1F2BAF
:1004A8004208840001308007EB01EC010030EF00C6
:1004B800FF30ED00FF30EE004208F8004308F90075
:1004C8000A128A1115270A128A117908831203134E
:1004D800EC007808EB00EC1F722A732A792A6F1453
:1004E800EB09EC09EB0A0319EC0A420884008313B0
:1004F8000008CB004B0884000A128A150A200A1249
:100508008A11CA008F2A0130CB07972A6930CA009E
:10051800972ACA01972A4A086C3A0319872A193A6E
:1005280003198A2A8D2A4B0884000A128A150A2080
:100538000A128A11753A031DA22AA32AF72ACC2A7D
:10054800430884000008FF00023080077F08840009
:100558000008C400840A0008C5004408C60045080D
:10056800C700C801C901D42A430884000008FF0055
:10057800043080077F0884000008C600840A000849
:10058800C700840A0008C800840A0008C900D42AE1
:100598004A08693A0319A42A053A0319B82AD42A39
:1005A800420884004B08013E8000EC2A4008B50050
:1005B8004108B6004908BA004808B9004708B80019
:1005C8004608B7000A128A11D8250A128A11382B50
:1005D8004B0884000A128A150A200A128A11753AF1
:1005E8000319DA2AF72A42088400000884000A124C
:1005F8008A150A200A128A11253A031D042B052B95
:10060800172B42088400013080072530F2000030A3
:10061800F3004008F4004108F5000A128A11A424E6
:100628000A128A11382B83120313420884000130FE
:1006380083138007382B42088400000884000A12BC
:100648008A150A200A128A11C400C5014408F2005A
:100658004508F3004008F4004108F5000A128A1121
:10066800A4240A128A11172B0800F400741C3D2BCD
:100678003E2B532B83120313660884008317671CD1
:1006880083130130F20069080739013E4D2B03102E
:10069800F20DFF3E031D4B2B72088004682B83125A
:1006A8000313660884008317671C83130130F20064
:1006B80069080739013E622B0310F20DFF3E031D46
:1006C800602B7208FF3A8005F41C6B2B6C2B822B75
:1006D800660884008317671C83130130F200690CD5
:1006E800F300F30C730C0739013E7C2B0310F20D59
:1006F800FF3E031D7A2B72088004982B660884003D
:100708008317671C83130130F200690CF300F30CA4
:10071800730C0739013E922B0310F20DFF3E031DA7
:10072800902B7208FF3A8005741D9B2B9C2BAF2BD6
:10073800660884008317671C83130130F2006A0877
:100748000739013EA92B0310F20DFF3E031DA72B0D
:1007580072088004C22B660884008317671C831301
:100768000130F2006A080739013EBC2B0310F20D74
:10077800FF3E031DBA2B7208FF3A8005F41DC52BF6
:10078800C62BDC2B660884008317671C8313013093
:10079800F2006A0CF300F30C730C0739013ED62BF8
:1007A8000310F20DFF3E031DD42B72088004F22BB8
:1007B800660884008317671C83130130F2006A0CF3
:1007C800F300F30C730C0739013EEC2B0310F20D08
:1007D800FF3E031DEA2B7208FF3A800508006630C9
:1007E800840083120313200883138000840A2108DD
:1007F8008000840A22088000840A23088000840A72
:100808002408800000306706031D0C2C053066069E
:10081800031D0F2C102C142C8316031385012F2C69
:1008280000306706031D1A2C06306606031D1D2CB2
:100838001E2C222C8316031386012F2C00306706EA
:10084800031D282C07306606031D2B2C2C2CA32CEB
:100858008316031387013430F900F130F800F80BE0
:10086800332CF90B332C382C03300A128A116C27DD
:100878000A128A110D30F900FB30F800F80B422CEF
:10088800F90B422C472C03300A128A116C270A12E2
:100898008A112A30F9008D30F800F80B512CF90B29
:1008A800512C562C03300A128A116C270A128A110D
:1008B80002300A128A116C270A128A1102300A12AF
:1008C8008A116C270A128A1108300A128A116C27B9
:1008D8000A128A1100300A128A116C270A128A1128
:1008E80006300A128A116C270A128A1108308312FC
:1008F8000313A50025152508F80004300310F80C8B
:10090800FF3E031D822C78080F390A128A116C27C2
:100918000A128A118312031325080F390A128A1141
:100928006C270A128A1100300A128A116C270A12DF
:100938008A1101300A128A116C270A128A110800DA
:10094800740875040319A92CAA2CB02C7408750412
:10095800031DAF2CB02CB72C72080A128A11FF277E
:100968000A128A11432D7408093E83120313A0004A
:1009780075080318013E003EA10020088400831773
:10098800211C83130008A200840A0008A30022087F
:1009980023040319D02CD12C032D7408093EA00080
:1009A80075080318013E003EA10020088400831743
:1009B800211C83130008A200840A0008A3007408FD
:1009C800023EA40075080318013E003EA500240855
:1009D80084008317251C83130008A600840A0008D6
:1009E800A7002708803AA8002308803A2802031D98
:1009F800FF2C220826020318022D032D432D74080C
:100A080084008317751C8313000883120313A00046
:100A1800840A0008A1007408023EA20075080318A1
:100A2800013E003EA300220884008317231C831381
:100A380000082007A5002108A4000318A40A801FA5
:100A4800262DA403831203132408A6002508840076
:100A58008317261C8313720880007408023EA000C6
:100A680075080318013E003EA10020088400831782
:100A7800211C831301308007840A0318800A0800A8
:100A8800F70083120313660884008317671C831317
:100A98000130F50068080739013E542D0310F50DA3
:100AA800FF3E031D522D750880047708F5000430B9
:100AB8000310F50CFF3E031D5C2D75080F390A1253
:100AC8008A1139230A128A118312031366088400D3
:100AD8008317671C83130130F500680CF600F60CC9
:100AE800760C0739013E7A2D0310F50DFF3E031DE4
:100AF800782D750880041A30F500F50B812D00005B
:100B080083120313660884008317671C831301305C
:100B1800F500680CF600F60C760C0739013E962DA8
:100B28000310F50DFF3E031D942D7508FF3A80054F
:100B380077080F390A128A1139230A128A11831287
:100B48000313660884008317671C83130130F500BC
:100B5800680CF600F60C760C0739013EB52D03102B
:100B6800F50DFF3E031DB32D750880041A30F500FE
:100B7800F50BBC2D0000831203136608840083174D
:100B8800671C83130130F500680CF600F60C760C30
:100B98000739013ED12D0310F50DFF3E031DCF2D62
:100BA8007508FF3A80050800013083120313BD0061
:100BB8006C08BC006B08BB001F30BE000030BF00D3
:100BC80083160313BF01322EFF30BE070318BF0A76
:100BD800FF30BF073E08A03E84000030F50000301B
:100BE800F4000030F3000A30F2003A08F90039083E
:100BF800F8003808F7003708F6000A128A15AC27FB
:100C08000A128A117208303E83138000831203137C
:100C1800BD01FF30BB070318BC0AFF30BC0700301A
:100C2800A8000030A7000030A6000A30A5003A0846
:100C3800AC003908AB003808AA003708A9000A1226
:100C48008A1157260A128A11831203132808BA0038
:100C58002708B9002608B8002508B70083123E08FF
:100C68003F040319382E392E462E3A083904380421
:100C78003704031D402E412EE82D3D08031D452E47
:100C8800462EE82D3508AE003608AF003E08A03ED7
:100C9800B0003C08B2003B08B1000A128A15592777
:100CA8000A128A110800003083120313B1000030C1
:100CB800B0000030AF000030AE002808270426043A
:100CC80025040319682E692EB42E0130B200772E40
:100CD8000130AD000310A50DA60DA70DA80DAD0B95
:100CE8006E2E0130B207A81F7A2E7B2E6C2E013093
:100CF800AD000310AE0DAF0DB00DB10DAD0B7D2ED7
:100D080028082C02031D922E27082B02031D922E61
:100D180026082A02031D922E25082902031C952E57
:100D2800962EA52E2508A9022608031C260FAA021E
:100D38002708031C270FAB022808031C280FAC0246
:100D48002E1401300310A80CA70CA60CA50CFF3E0E
:100D5800031DA62E0130B202031DB32EB42E7B2E26
:100D68003108A8003008A7002F08A6002E08A50003
:100D7800080083120313A4000030A8000030A70065
:100D88000030A6000030A500A90124080A128A151F
:100D98003E260A128A11720883120313A0007308F0
:100DA800A100A201A3012008A50721080311031827
:100DB800013E0319E02EA607220803110318013E7D
:100DC8000319E72EA707230803110318013E031987
:100DD800EE2EA807413083120313A000A00BF22EB9
:100DE800F52E013083120313A90708302902031CCA
:100DF800FE2EFF2EC92E2508A0002608A1002708D0
:100E0800A2002808A30003300310A30CA20CA10C15
:100E1800A00CFF3E031D082F2108F7002008F6004C
:100E2800080083120313A101A20178088400831328
:100E3800000884000A128A150A200A128A112A3A1E
:100E4800031D272F282F562F78088400013080078C
:100E5800790884000008FF00023080077F088400BA
:100E68000008A100840A0008A200672F2208F300E6
:100E78002108F2000A30F4000030F5000A128A1541
:100E8800A6260A128A118312031320087207A100EA
:100E98000030031801307307A2007808840001307D
:100EA8008313800778088400000884000A128A15D2
:100EB8000A200A128A11D03EA0000A302002031C20
:100EC800662F672F3A2F2208F9002108F80008003A
:100ED800F70083120313660884008317671C8313C3
:100EE8000130F50068080739013E7C2F0310F50D25
:100EF800FF3E031D7A2F7508FF3A800577080A120E
:100F08008A1139230A128A1183120313660884008E
:100F18008317671C83130130F500680CF600F60C84
:100F2800760C0739013E9A2F0310F50DFF3E031D7D
:100F3800982F750880040B30F6006230F500F50B29
:100F4800A32FF60BA32F0000831203136608840057
:100F58008317671C83130130F500680CF600F60C44
:100F6800760C0739013EBA2F0310F50DFF3E031D1D
:100F7800B82F7508FF3A8005080083120313AC01E7
:100F8800AD01DE2F2B08A900AA012908F2002A08C2
:100F9800F3007708F4007808F5000A128A11A424EF
:100FA8000A128A11013083120313AC070318AD0A21
:100FB8000030AD072C087607A900290884008313A0
:100FC8000008AB002B08031DEA2FEB2FC62F0800E3
:100FD8000330831603178800890101308312031335
:100FE8009F008030831603139F00080007340034E5
:100FF8001A342C343E340800FF1B0A2883137F1848
:1010080083170008840A0319FF0A080008308A00B9
:101018000408840A82070034253433346C34753468
:101028002534253420342034203400344C343134F1
:0C1038003A3400344C3432343A34003482
:101BC20064008001840A0406031900340406E22D2D
:101BD20083120313870188018316031387100810E9
:101BE2007C30920007308312031392000C309D0068
:101BF2009B018C10831603138C140B178B17080090
:101C02007308F5007208F4000310F50CF40C0310CD
:101C1200F50CF40C7408831203139B00CF309D055E
:101C220072080339F40003300310F40DFF3E031D64
:101C3200152E0310740D9D040800831203138C1CCF
:101C4200232E242E372E0130FA0764307A02031C29
:101C52002B2E2C2E2D2EFA017B087A020318322EFF
:101C6200332E352E0814362E08108C1071088A0077
:101C7200700E8300FE0E7E0E0900F500C330831243
:101C820003139F057508F40001300310F40DFF3EA5
:101C9200031D462E0310740D9F040D30F400F40B47
:101CA200502E831203139F149F18582E592E552E0F
:101CB2001E08F300831603131E08F20008008312A5
:101CC20003134E08D000722E4C08C0004D08C1000C
:101CD2005030C2004F08C3000A128A1143220A126E
:101CE2008A1583120313500884000A128A150A20E7
:101CF2000A128A15003A031D7F2E802E652ECC0112
:101D0200CD010800533083120313D8005108D900C3
:101D12000030DA00DB01DC01E201E3015930CC00E2
:101D22000030CD005208CE005830CF000A128A157A
:101D320060260A128A15831203135B085107D70023
:101D420057088400831380010800F601F701721C12
:101D5200AB2EAC2EB22E7408F6070318F70A7508DC
:101D6200F70701300310F40DF50DFF3E031DB32EEE
:101D720001300310F30CF20CFF3E031DBA2E720861
:101D82007304031DC52EC62EA82E7708F30076080D
:101D9200F200080083120313A301A401F42E230806
:101DA2007807A1007908A0000318A00AA31FDA2E61
:101DB200A003831203132008A2002208FF002108B7
:101DC20084000A128A1500200A128A150A128A1140
:101DD20044250A128A15013083120313A30703183C
:101DE200A40A0030A40723087807A1007908A000FC
:101DF2000318A00AA31FFE2EA003831203132008B8
:101E0200A2002208FF00210884000A128A1500207D
:101E12000A128A15003A031D0F2F102FD02E080028
:101E2200003083120313A4000030A3000030A2008C
:101E32000030A100721C1E2F1F2F362F7608A1071B
:101E4200770803110318013E0319282FA207780807
:101E520003110318013E03192F2FA3077908031159
:101E62000318013E0319362FA4070130A000031006
:101E7200F60DF70DF80DF90DA00B382F01300310F8
:101E8200F50CF40CF30CF20CFF3E031D402F750809
:101E9200740473047204031D4F2F502F1B2F240848
:101EA200F5002308F4002208F3002108F2000800DC
:101EB200831203136F1C5E2F5F2F6A2F3008F60008
:101EC2002E08F7002F08F8000A128A11C1270A12F9
:101ED2008A1583120313B21F6F2F702F722FB10155
:101EE200B201B301B4018C2F2030F2000030F300B4
:101EF200831203132E08F4002F08F5000A128A1128
:101F0200A4240A128A15013083120313B30703189B
:101F1200B40A0030B4073408803AF9003208803A33
:101F22007902031D962F31083302031C992F9A2F31
:101F3200752F831203136F189F2FA02FAB2F30081A
:101F4200F6002E08F7002F08F8000A128A11C1279E
:101F52000A128A15080075087404730472040319BE
:101F6200B32FB42FF72F013083120313A100C42F14
:101F72000130A0000310F20DF30DF40DF50DA00BCE
:101F8200BB2F0130A107F51FC72FC82FB92F750826
:101F92007902031DD62F74087802031DD62F730809
:101FA2007702031DD62F72087602031CD92FDA2F6F
:101FB200E82F7208F6027308031C730FF702740805
:101FC200031C740FF8027508031C750FF902013027
:101FD2000310F50CF40CF30CF20CFF3E031DE92F79
:101FE2000130A102031DF62FF72FC82F7908F50043
:0E1FF2007808F4007708F3007608F200080083
:04400E00F22FFF3F4F
:00000001FF
