:060000000A128A110C280F
:10000800FE00030EF0000A08F1000A128A11152CEE
:100018000A128A110F280A128A1125240A128A1133
:10002800B0000A128A1126240A128A11B1000A1293
:100038008A1127240A128A11B2000A128A11282466
:100048000A128A11B3000A128A1129240A128A1183
:10005800B4000A128A112A240A128A11FB00AB0181
:10006800AC01AD01AE01AF01FA0183010A128A1198
:100078003D28263084008312031330088313800040
:10008800840A31088000840A32088000840A330810
:100098008000840A340880008316031788018901C8
:1000A800831603138701FF30860083120313870129
:1000B800860183160313811301138B100B168B17FC
:1000C800203084008312031326088000840A27083E
:1000D8008000840A28088000840A29088000840A8D
:1000E8002A0880000A128A11B9210A128A110930D5
:1000F800F80000300A128A11FB220A128A11013014
:10010800F80001300A128A11FB220A128A117B08B0
:1001180003198F2890288B2800300A128A1153233C
:100128000A128A1101300A128A1153230A128A11FB
:100138007A08031DA028A128CE2808300A128A119F
:1001480053230A128A1100300A128A1153230A1201
:100158008A111130F8000A128A11ED230A128A1145
:100168000C300A128A1153230A128A1100300A121B
:100178008A1153230A128A1100300A128A1169223D
:100188000A128A112A30F8000A128A11ED230A127B
:100198008A11FA2808300A128A1153230A128A117E
:1001A80000300A128A1153230A128A113530F800D6
:1001B8000A128A11ED230A128A110C300A128A11C6
:1001C80053230A128A1100300A128A1153230A1281
:1001D8008A111E30F8000A128A11ED230A128A11B8
:1001E80001300A128A1169220A128A11FB018B282E
:1001F8000A128A110C28F400741C032904291929ED
:10020800831203132B08840083172C1C83130130DB
:10021800F2002E080739013E13290310F20DFF3EA4
:10022800031D1129720880042E29831203132B0839
:10023800840083172C1C83130130F2002E08073921
:10024800013E28290310F20DFF3E031D26297208DE
:10025800FF3A8005F41C3129322948292B088400EB
:1002680083172C1C83130130F2002E0CF300F30CBF
:10027800730C0739013E42290310F20DFF3E031D9E
:100288004029720880045E292B08840083172C1CDF
:1002980083130130F2002E0CF300F30C730C0739B2
:1002A800013E58290310F20DFF3E031D562972081E
:1002B800FF3A8005741D6129622975292B0884007D
:1002C80083172C1C83130130F2002F080739013ED5
:1002D8006F290310F20DFF3E031D6D29720880047B
:1002E80088292B08840083172C1C83130130F20003
:1002F8002F080739013E82290310F20DFF3E031D26
:1003080080297208FF3A8005F41D8B298C29A229BF
:100318002B08840083172C1C83130130F2002F0C48
:10032800F300F30C730C0739013E9C290310F20DFE
:10033800FF3E031D9A2972088004B8292B088400FF
:1003480083172C1C83130130F2002F0CF300F30CDD
:10035800730C0739013EB2290310F20DFF3E031D4D
:10036800B0297208FF3A800508002B3084008312F8
:100378000313200883138000840A21088000840A5C
:1003880022088000840A23088000840A2408800048
:1003980000302C06031DD22905302B06031DD52954
:1003A800D629DA29831603138501F52900302C068E
:1003B800031DE02906302B06031DE329E429E8295B
:1003C800831603138601F52900302C06031DEE2938
:1003D80007302B06031DF129F229682A8316031317
:1003E80087011A30F900F830F800F80BF929F90BF1
:1003F800F929000003300A128A1153230A128A11BC
:100408000730F9007D30F800F80B082AF90B082AA4
:1004180003300A128A1153230A128A111530F9007F
:10042800C630F800F80B162AF90B162A000003301C
:100438000A128A1153230A128A1102300A128A11E7
:1004480053230A128A1102300A128A1153230A12FC
:100458008A1108300A128A1153230A128A110030AD
:100468000A128A1153230A128A1106300A128A11B3
:1004780053230A128A11083083120313A500251585
:100488002508F80004300310F80CFF3E031D472A26
:1004980078080F390A128A1153230A128A11831213
:1004A800031325080F390A128A1153230A128A11D5
:1004B80000300A128A1153230A128A1101300A12D3
:1004C8008A1153230A128A110800F70083120313B2
:1004D8002B08840083172C1C83130130F5002D088A
:1004E8000739013E792A0310F50DFF3E031D772ACF
:1004F800750880047708F50004300310F50CFF3EFA
:10050800031D812A75080F390A128A11FF200A1261
:100518008A11831203132B08840083172C1C83135E
:100528000130F5002D0CF600F60C760C0739013E6B
:100538009F2A0310F50DFF3E031D9D2A75088004B0
:100548000D30F500F50BA62A831203132B0884003F
:1005580083172C1C83130130F5002D0CF600F60CC4
:10056800760C0739013EBA2A0310F50DFF3E031D2C
:10057800B82A7508FF3A800577080F390A128A11D8
:10058800FF200A128A11831203132B088400831791
:100598002C1C83130130F5002D0CF600F60C760C9C
:1005A8000739013ED92A0310F50DFF3E031DD72A4E
:1005B800750880040D30F500F50BE02A831203134B
:1005C8002B08840083172C1C83130130F5002D0C95
:1005D800F600F60C760C0739013EF42A0310F50DE7
:1005E800FF3E031DF22A7508FF3A800508008312B2
:1005F8000313A2000730A2052208A000023003104E
:10060800A00DFF3E031D032B0310200D403EA1004B
:1006180004300310A10CFF3E031D0D2B21080F39D8
:100628000A128A1153230A128A1183120313220809
:10063800A00002300310A00DFF3E031D1E2B031067
:10064800200D403E0F390A128A1153230A128A11CB
:1006580083120313A3012308780784000A128A115E
:10066800A8230A128A110A128A1169220A128A1107
:10067800013083120313A30708302302031C452B00
:10068800462B2F2B08300A128A1153230A128A117B
:1006980000300A128A1153230A128A110800F7003F
:1006A800831203132B08840083172C1C8313013037
:1006B800F5002D080739013E632B0310F50DFF3EA9
:1006C800031D612B7508FF3A800577080A128A1105
:1006D800FF200A128A11831203132B088400831740
:1006E8002C1C83130130F5002D0CF600F60C760C4B
:1006F8000739013E812B0310F50DFF3E031D7F2BAB
:10070800750880040630F6003030F500F50B8A2BAA
:10071800F60B8A2B0000831203132B08840083171F
:100728002C1C83130130F5002D0CF600F60C760C0A
:100738000739013EA12B0310F50DFF3E031D9F2B2A
:100748007508FF3A8005080003308A000408840A07
:10075800820700340A341F341F341F340E34043423
:1007680000340034043402341F341F341F3402347C
:1007780004340034203420342034203420344134EC
:100788004C344F344834413420342034003420343D
:100798002034203420344D3461347434613474345A
:1007A8006134203400342034203420342034573449
:1007B8004F3452344C344434203400342034203400
:1007C80020342034483461346B3475346E346134E9
:1007D800003483120313A001A101072C2008780715
:1007E80084000A128A11A8230A128A110A128A118D
:1007F80069220A128A11013083120313A007031811
:10080800A10A0030A1072008780784000A128A117B
:10081800A8230A128A11003A031D132C142CF22B58
:1008280008008B1C182C192C1E2C0130FA060130DC
:10083800FB008B1071088A00700E8300FE0E7E0E7E
:0E0848000900073400341A342C343E340134D5
:04400E00F22FFF3F4F
:00000001FF
