:060000000A128A110C280F
:10000800FE00030EF0000A08F1000A128A111129F5
:100018000A128A110F2883132A30FD000130FE00CE
:100028001F30FF00203084000A128A1102210A12B0
:100038008A11FB0183010A128A117928F701F51F39
:10004800262827282E28F409F509F40A0319F50AA1
:100058000130F700F31F312832283728F209F30955
:10006800F20A0319F30A7208730403193C283D289D
:100078006A280130F600492801300310F20DF30D0B
:10008800FF3E031D41280130F607F31F4C284D2879
:10009800402873087502031D532872087402031C54
:1000A800562857285D287208F4027308031CF503C4
:1000B800F50201300310F30CF20CFF3E031D5E281D
:1000C8000130F602031D69286A284D2877080319AC
:1000D8006E286F287428F409F509F40A0319F50A3B
:1000E8007508F3007408F2000800831603178801E6
:1000F80089017F308316031381058701880106145F
:100108008312031387018801AA01831603130113BD
:100118008B100B168B1783122A08203E840083133A
:10012800000888000630FA001330F900AD30F800F6
:10013800F80B9C28F90B9C28FA0B9C28A3287B0811
:100148000319A728A828AE28FB010A128A11C8207B
:100158000A128A110A30F2000030F30083120313E6
:100168002A08013EF400003003180130F5000A1295
:100178008A1122200A128A11720883120313AA0014
:100188008F280A128A110C28F501F601831203132D
:1001980007140630F4001330F300AD30F200F20B10
:1001A800D328F30BD328F40BD328DA2883120313AC
:1001B80007100630F4001330F300AD30F200F20BF4
:1001C800E328F30BE328F40BE328EA280130F507CA
:1001D8000318F60A0030F6077608803AFF008030E8
:1001E8007F02031DF92804307502031CFC28FD2832
:1001F800CA2808007E088A007F0882000A128A112D
:10020800FE200A128A118000840A04087D06031958
:100218000034FF0A0319FE0A02298B1C1429152928
:1002280018298B100130FB0071088A00700E8300BA
:10023800FE0E7E0E09003F3406345B344F346634BC
:0A0248006D347D3407347F346F34C9
:04400E00F22FFF3F4F
:00000001FF
