:060000000A128A110C280F
:10000800FE00030EF0000A08F1000A168A15002CFB
:100018000A128A110F28831603170A168A15F02266
:100028000A128A11CF000A168A15F1220A128A11B9
:10003800D0000A168A15F2220A128A11D1000A166D
:100048008A15F3220A128A11D2000A168A15F42296
:100058000A128A11D300831790308400B1300A162F
:100068008A15F5220A128A111030840060300A16A7
:100078008A15F5220A128A1183160313EE01FA0172
:10008800FB0183010A168A113B2D3F3083160313A7
:10009800D6008030D5000030D4000030D300BA013B
:1000A800BB015008F5004F08F4004E08F3004D0856
:1000B800F2000030F9000030F8000030F70000309E
:1000C800F6000A168A1522250A128A1103186D28C5
:1000D8006E28372A7F28831603133F08D6003E0868
:1000E800D5003D08D4003C08D3000130BA070318F6
:1000F800BB0A0030BB07413083120313A90020302C
:10010800A8000030A7000030A60083160313560885
:1001180083120313AD0083160313550883120313C8
:10012800AC0083160313540883120313AB00831621
:100138000313530883120313AA000A128A15BE2454
:100148000A128A1183120313290883160313BF00A6
:1001580083120313280883160313BE0083120313A4
:10016800270883160313BD0083120313260883167A
:100178000313BC004D08A7004E08A8004F08A900AB
:100188005008AA003C08A7023D08031C3D0FCD28D3
:10019800CE28A8023E08031C3E0FD328D428A90263
:1001A8003F08031C3F0FD928DA28AA022A08F500BD
:1001B8002908F4002808F3002708F2000A168A150F
:1001C80021230A128A11F51BF9287508031DFA283C
:1001D8007408031DFA287308031DFA2802307202F6
:1001E800031DF628031CF928FA286F288316031321
:1001F8003F0883120313C300831603133E088312B8
:100208000313C200831603133D0883120313C100AE
:10021800831603133C0883120313C00083160313C9
:10022800500883120313C700831603134F08831261
:100238000313C600831603134E0883120313C50065
:10024800831603134D0883120313C4000A128A1578
:1002580000200A128A11031C322933296F288316B9
:1002680003134D08A7004E08A8004F08A90050081E
:10027800AA005308A7025408031C540F442945290F
:10028800A8025508031C550F4A294B29A9025608EC
:10029800031C560F50295129AA022A08F5002908DB
:1002A800F4002808F3002708F2000A168A1521230B
:1002B8000A128A11F51B71297508031D7029740823
:1002C800031D70297308031D702902307202031D73
:1002D8006D29031870297129FE29831603135608FE
:1002E800D0005508CF005408CE005308CD00372A57
:1002F800413083120313C3002030C2000030C10014
:100308000030C00083160313560883120313C70076
:1003180083160313550883120313C60083160313A9
:10032800540883120313C50083160313530883125A
:100338000313C4000A128A15A4200A128A11831210
:100348000313430883160313D600831203134208CA
:1003580083160313D500831203134108831603136E
:10036800D40083120313400883160313D300FF300D
:10037800BA070318BB0AFF30BB074D08A7004E0891
:10038800A8004F08A9005008AA005308A70254085B
:10039800031C540FD029D129A8025508031C550F56
:1003A800D629D729A9025608031C560FDC29DD29AE
:1003B800AA022A08F5002908F4002808F3002708EB
:1003C800F2000A168A1521230A128A11F51BFD2943
:1003D8007508031DFC297408031DFC297308031DF7
:1003E800FC2902307202031DF9290318FC29FD2992
:1003F800FE29712983160313500883120313C300BF
:10040800831603134F0883120313C20083160313C2
:100418004E0883120313C100831603134D08831279
:100428000313C00083160313560883120313C7006F
:1004380083160313550883120313C6008316031388
:10044800540883120313C500831603135308831239
:100458000313C4000A128A1500200A128A11031C09
:10046800362A372A7C29831603132608B400340851
:10047800B500FB1B402A412A462A7B08AE007A08B1
:10048800AD004A2A0630AD000030AE002E08B90093
:100498002D08B8000130B8070318B90A0030B907A9
:1004A80066303506031D592A5A2A742ABB1F5D2A4D
:1004B8005E2A682A3F30D6008030D5000030D4004C
:1004C8000030D300BA01BB016730340603196D2A26
:1004D8006E2A742A3A08B8070318B90A3B08B907FC
:1004E800CA01CB015008C5004F08C4004E08C3001C
:1004F8004D08C2005608BF005508BE005408BD008C
:100508005308BC00AD2B831603135608831203133C
:10051800C30083160313550883120313C2008316FE
:100528000313540883120313C100831603135308DB
:1005380083120313C00083160313450883120313A1
:10054800C70083160313440883120313C6008316D7
:100558000313430883120313C500831603134208C9
:1005680083120313C4000A128A15A4200A128A11DE
:10057800831203134308DD004208DC004108DB0056
:100588004008DA000A168A112C240A128A118312EA
:1005980003135D0883160313C900831203135C0851
:1005A80083160313C800831203135B08831603130F
:1005B800C700831203135A0883160313C600490899
:1005C800F5004808F4004708F3004608F2000A1648
:1005D8008A15C9250A128A11730883160313B700EE
:1005E8007208B600560883120313AD00831603136E
:1005F800550883120313AC0083160313540883129F
:100608000313AB0083160313530883120313AA00C2
:1006180083160313490883120313A90083160313CF
:10062800480883120313A80083160313470883128C
:100638000313A70083160313460883120313A600A7
:100648000A128A15BE240A128A1183120313290872
:10065800C3002808C2002708C1002608C000831666
:100668000313450883120313C700831603134408B2
:1006780083120313C600831603134308831203135C
:10068800C50083160313420883120313C4000A1615
:100698008A15B7230A128A11831203134308831693
:1006A8000313C50083120313420883160313C400FF
:1006B80083120313410883160313C3008312031321
:1006C800400883160313C200413083120313C3008A
:1006D8002030C2000030C1000030C0008316031370
:1006E800560883120313C700831603135508831291
:1006F8000313C60083160313540883120313C5009B
:1007080083160313530883120313C4000A128A15AD
:10071800A4200A128A1183120313430883160313B1
:10072800D60083120313420883160313D5008312DD
:100738000313410883160313D400831203134008DC
:1007480083160313D3000130CA070318CB0A0030FD
:10075800CB074B08803AA7003908803A2702031DC7
:10076800B72B38084A02031CBA2BBB2B872A403008
:1007780083120313A900A030A8000030A70000309E
:10078800A60083160313560883120313AD008316BD
:100798000313550883120313AC008316031354087C
:1007A80083120313AB008316031353088312031336
:1007B800AA000A128A15BE240A128A118312031388
:1007C800290883160313C900831203132808831604
:1007D8000313C80083120313270883160313C700E3
:1007E80083120313260883160313C60045088312D1
:1007F8000313C30083160313440883120313C200B0
:1008080083160313430883120313C10083160313CB
:10081800420883120313C000831603134908831286
:100828000313C70083160313480883120313C60073
:1008380083160313470883120313C5008316031393
:10084800460883120313C4000A128A1500200A12EC
:100858008A110318302C312C3C2C003083160313DA
:10086800C9000030C8000030C7000030C600652C41
:10087800831603134508F5004408F4004308F30001
:100888004208F2004908F9004808F8004708F7004C
:100898004608F6000A168A1522250A128A11031C30
:1008A800562C572C652C8316031336185C2C5D2C9C
:1008B800652C0030C9000030C8000030C700003087
:1008C800C600831603134908F5004808F4004708D2
:1008D800F3004608F2005008F9004F08F8004E08E7
:1008E800F7004D08F6000A128A156E220A128A11BC
:1008F800750883160313C5007408C4007308C30081
:100908007208C200450883120313C3008316031339
:10091800440883120313C200831603134308831287
:100928000313C10083160313420883120313C00084
:100938004130A9002030A8000030A7000030A600F0
:10094800831603133F0883120313AD0083160313A2
:100958003E0883120313AC00831603133D08831269
:100968000313AB00831603133C0883120313AA0076
:100978000A128A15BE240A128A118312031329083F
:10098800C7002808C6002708C5002608C4000A12A0
:100998008A1500200A128A11031CD32CD42C272D67
:1009A800013083160313BA070318BB0A0030BB07CC
:1009B800413083120313A9002030A8000030A7009B
:1009C8000030A600831603133F0883120313AD00FB
:1009D800831603133E0883120313AC008316031314
:1009E8003D0883120313AB00831603133C088312DC
:1009F8000313AA000A128A15BE240A128A11831246
:100A08000313290883160313BF008312031328084E
:100A180083160313BE0083120313270883160313D8
:100A2800BD0083120313260883160313BC00663027
:100A38003506031D202D212D272D0130B807031859
:100A4800B90A0030B907831603133F08D6003E08D9
:100A5800D5003D08D4003C08D3003B08AC003A0858
:100A6800AB00B301AF01B001CA01CB01D92E831687
:100A78000313560883120313C30083160313550880
:100A880083120313C200831603135408831203133B
:100A9800C10083160313530883120313C00083167F
:100AA8000313450883120313C7008316031344086E
:100AB80083120313C6008316031343088312031318
:100AC800C50083160313420883120313C4000A12D5
:100AD8008A15A4200A128A11831203134308DD0021
:100AE8004208DC004108DB004008DA000A168A11D7
:100AF8002C240A128A11831203135D088316031328
:100B0800C900831203135C0883160313C8008312F9
:100B180003135B0883160313C700831203135A08D1
:100B280083160313C6004908F5004808F40047086F
:100B3800F3004608F2000A168A15C9250A128A1116
:100B48007308803AFF0080307F02031DAD2D0A3004
:100B580072020318B02DB12DC72D8316031349084F
:100B6800F5004808F4004708F3004608F2000A16A2
:100B78008A15C9250A128A11730883160313B70048
:100B88007208B600CD2D093083160313B600003065
:100B9800B7003308031DD12DD22D032EAC1FD52D40
:100BA800D62D032E5108103E84002E308317800066
:100BB8000130D1070318D20A0030D207FF30C0072E
:100BC8000318C10AFF30C1070130B300032E5108D2
:100BD800103E84003030831780000130D10703189D
:100BE800D20A0030D207FF30C0070318C10AFF300D
:100BF800C107FF30AF070318B00AFF30B0072F084E
:100C08003004031D082E092EEB2D5108103E8400D8
:100C18003608303E831780000130D1070318D20A06
:100C28000030D207FF30C0070318C10AFF30C107E0
:100C3800560883120313AD00831603135508831255
:100C48000313AC0083160313540883120313AB0079
:100C580083160313530883120313AA00831603137E
:100C6800490883120313A900831603134808831243
:100C78000313A80083160313470883120313A7005E
:100C880083160313460883120313A6000A128A1553
:100C9800BE240A128A11831203132908C3002808E4
:100CA800C2002708C1002608C000831603134508A0
:100CB80083120313C7008316031344088312031314
:100CC800C60083160313430883120313C500831653
:100CD8000313420883120313C4000A168A15B723A4
:100CE8000A128A1183120313430883160313C500DB
:100CF80083120313420883160313C40083120313D9
:100D0800410883160313C300831203134008831694
:100D18000313C200413083120313C3002030C20002
:100D28000030C1000030C000831603135608831238
:100D38000313C70083160313550883120313C60051
:100D480083160313540883120313C5008316031371
:100D5800530883120313C4000A128A15A4200A1226
:100D68008A1183120313430883160313D6008312D0
:100D78000313420883160313D50083120313410893
:100D880083160313D4008312031340088316031336
:100D9800D300FF30AB070318AC0AFF30AC070130B3
:100DA800CA070318CB0A0030CB074B08803AA700C4
:100DB8003908803A2702031DE32E38084A0203182F
:100DC800E62EE72EF62E831603135208803AFF000C
:100DD80080307F02031DF22E4B305102031CF52E8A
:100DE800F62E3B2D4F3083160313CA000030CB007C
:100DF8004A08103E8400831780011030A70051086C
:100E0800A7024A082707F2001030F3005208F5003D
:100E18005108F4000A168A154F230A128A118316FC
:100E2800031351084A02D1005208031C520A4B020C
:100E3800D2004C08031D212F232F0130242F00300E
:100E4800A700A8012708CA002808CB00EE1C2D2FF0
:100E58002E2F612F432FFF3083160313D10703185A
:100E6800D20AFF30D2075108103E84003030831771
:100E78008000FF30C0070318C10AFF30C1074B08C4
:100E8800803AA7004108803A2702031D4D2F4008E9
:100E98004A020318502F512F612F831603134B0852
:100EA800803AA7005208803A2702031D5D2F510897
:100EB8004A02031C602F612F2F2F831603134C083F
:100EC8000319672F682F742FFF30D1070318D20A30
:100ED800FF30D2075108103E84004C088317800069
:100EE8004A08C0024B08031CC103C1022008831230
:100EF8000313AE0083160313210883120313AF00F4
:100F0800831603135108103E83120313B00083168F
:100F18000313410883120313B20083160313400816
:100F280083120313B1000A168A1572250A128A1150
:100F3800080083120313A101A20178088400831317
:100F4800000884000A168A1500200A128A112A3A13
:100F5800031DAF2FB02FE02F7808840001308007E1
:100F68007908840083170008FF00023080077F0893
:100F7800840083130008A100840A0008A200F12F4E
:100F88002208F3002108F2000A30F4000030F500CE
:100F98000A168A15DB230A128A1183120313200802
:100FA8007207A1000030031801307307A200780807
:100FB80084000130831380077808840000088400C7
:100FC8000A168A1500200A128A11D03EA0000A309B
:100FD8002002031CF02FF12FC42F2208F90021084A
:100FE800F80008004130831203139F008E308316E7
:100FF80003139F0008000800003083120313400504
:10100800C80000304105C90080304205CA007F3061
:101018004305CB004B084A0449044804031D15281E
:1010280016281E280030C3000030C2000030C1005E
:101038000030C00000304405C80000304505C90034
:1010480080304605CA007F304705CB004B084A046C
:1010580049044804031D312832283A280030C700C3
:101068000030C6000030C5000030C400C31F3D2852
:101078003E2862280030C8000030C9000030CA008D
:101088008030CB004008C8024108031C410F4D289E
:101098004E28C9024208031C420F53285428CA028A
:1010A8004308031C430F59285A28CB024B08C30096
:1010B8004A08C2004908C1004808C000C71F65287F
:1010C80066288A280030C8000030C9000030CA00ED
:1010D8008030CB004408C8024508031C450F75281A
:1010E8007628C9024608031C460F7B287C28CA02BA
:1010F8004708031C470F81288228CB024B08C700EA
:101108004A08C6004908C5004808C4008030C3061C
:101118008030C70647084302031D9C284608420240
:10112800031D9C2845084102031D9C2844084002D1
:1011380003189F28A028A2280310A3280314080036
:10114800831203134708D1008030D1054708C8002F
:101158004807D800C61FB128B228B3285814580821
:101168000319B728B828C828580A031DBC28BD2861
:10117800C5280030C7000030C6000030C500003068
:10118800C400C617C701D0280030C7000030C60009
:101198000030C5000030C40043088039D106430838
:1011A800C8004807D900C21FDA28DB28DC285914F0
:1011B80059080319E028E128F128590A031DE528F0
:1011C800E628EE280030C3000030C2000030C1001D
:1011D8000030C000C217C301F9280030C300003036
:1011E800C2000030C1000030C0004308420441047E
:1011F8004004031D0029012918290030C7000030C8
:10120800C6000030C5000030C4008030C6047F30FE
:10121800C7045108C7044708C3004608C200450868
:10122800C1004408C0006D2A5808031D1C291D2947
:1012380026290030C3000030C2000030C100003051
:10124800C0006D2A5808C800C9014908CB005908D0
:101258004802CA00031CCB034A087F3ED2004B0851
:101268000318013E003ED3004708D0004608CF00CF
:101278004508CE004408CD000030C7000030C60045
:101288000030C5000030C4000030D7000030D60060
:101298000030D5000030D400D9019A295908031923
:1012A8005629572977290130C8000310CD0DCE0DD6
:1012B800CF0DD00DC80B59290130C8000310C40D3B
:1012C800C50DC60DC70DC80B6229D71F6C296D291E
:1012D8006E2944140130C8000310D40DD50DD60D65
:1012E800D70DC80B702943085002031D85294208F1
:1012F8004F02031D852941084E02031D8529400818
:101308004D02031C88298929982957174008CD02BE
:101318004108031C410FCE024208031C420FCF02B2
:101328004308031C430FD0020130D9071A30590271
:10133800031C9F29A029522950084F044E044D042C
:101348000319A729A829C7295414C7290130C80097
:101358000310C40DC50DC60DC70DC80BAC29D71F8A
:10136800B629B729B82944140130C8000310D40D90
:10137800D50DD60DD70DC80BBA29FF30D2070318E3
:10138800D30AFF30D307C61FCA29CB29AA29D901F6
:10139800D71FCF29D029EC29FF305405C800FF30CA
:1013A8005505C900FF305605CA007F305705CB00E8
:1013B8004B084A04490448040319E329E429E729A6
:1013C8000130D900EC29441CEA29EB29EC29E4294D
:1013D80059080319F029F129222A0130C4070030DD
:1013E80003180130C507003003180130C607003064
:1013F80003180130C707471C022A032A222A440877
:10140800C8004508C9004608CA004708CB00013093
:10141800CC004B0DCB0CCA0CC90CC80CCC0B0D2A3C
:101428004B08C7004A08C6004908C5004808C40058
:101438000130D2070318D30A0030D3075308803A83
:10144800FF0080307F02031D2B2AFF305202031C4D
:101458002E2A2F2A3D2AFF3083120313D200003090
:10146800D3000030C7000030C6000030C50000308F
:10147800C400831203135308803AFF0080307F02B0
:10148800031D482A0130520203184B2A4C2A592AB4
:1014980083120313D201D3010030C7000030C60005
:1014A8000030C5000030C400D10183120313520874
:1014B800D800581C602A612A632AC617652A7F301B
:1014C800C6055808C8000310480CC7005108C704CF
:1014D8000F290800750883120313A8008030A80597
:1014E8007508A0002007AA00F41F7B2A7C2A7D2A01
:1014F8002A142A080319812A822A922A2A0A031DF1
:10150800862A872A8F2A0030F5000030F400003040
:10151800F3000030F200F417F5019A2A0030F500C4
:101528000030F4000030F3000030F2007908A90020
:101538008030A905290828060319A32AA42AA52A60
:1015480028177908A0002007A900F81FAC2AAD2A9F
:10155800AE2A291429080319B22AB32AC32A290A48
:10156800031DB72AB82AC02A0030F9000030F80055
:101578000030F7000030F600F817F901CB2A0030E8
:10158800F9000030F8000030F7000030F6002A08B3
:1015980029020318D02AD12AF52A281FD42AD52AA5
:1015A800D72A8030A8062A08AB002908AA002B08E9
:1015B800A9007208AB007608F2002B08F600730841
:1015C800AB007708F3002B08F7007408AB00780825
:1015D800F4002B08F8007508AB007908F5002B0813
:1015E800F900AB012908A000A1012108A3002A08DD
:1015F8002002A200031CA3032308803AFF008030C6
:101608007F02031D092B1A302202031C0C2B0D2B01
:10161800422B7508740473047204031D142B162BD3
:101628000130172B003083120313AB000030F50094
:101638000030F4000030F3000030F2002908AA005E
:101648004A2B2B1C282B292B302B2B08A0000310EE
:10165800200C0138AB00322B0310AB0C721C352B5D
:10166800362B372BAB170130A000750DF50CF40C99
:10167800F30CF20CA00B392B0130AA0783120313C9
:1016880029082A02031C492B4A2B252B281B4D2BE2
:101698004E2B952B2A08031D522B532B5C2B003005
:1016A800F5000030F4000030F3000030F200BD2CEB
:1016B8007608F207770803110318013E0319652B12
:1016C800F307780803110318013E03196C2BF4077C
:1016D800790803110318013E0319732BF507751CCC
:1016E800762B772B492C2B1C7A2B7B2B822B2B08C8
:1016F800A0000310200C0138AB00842B0310AB0CA6
:10170800721C872B882B892BAB170130A000750D15
:10171800F50CF40CF30CF20CA00B8B2B0130AA0780
:10172800492C7508803AFF007908803A7F02031D2A
:10173800A72B78087402031DA72B77087302031DD3
:10174800A72B760872020318AA2BAB2B022CFF30AA
:10175800A000FF30A100FF30A200FF30A3007608F0
:10176800A4007708A5007808A6007908A7007208E1
:10177800A4027308031C730FC22BC32BA5027408A1
:10178800031C740FC82BC92BA6027508031C750F00
:10179800CE2BCF2BA7022408A00725080318250F56
:1017A800D62BD72BA10726080318260FDC2BDD2BF9
:1017B800A20727080318270AA3072308F500220809
:1017C800F4002108F3002008F2008030A8062B035B
:1017D800FF3AAB002B08031DF22BF32B102C013022
:1017E800F207003003180130F30700300318013006
:1017F800F407003003180130F507102C7608F202C0
:101808007708031C770FF3027808031C780FF4029B
:101818007908031C790FF5027508740473047204BF
:10182800031D172C182C452C2B08031D1C2C1D2CB4
:10183800452C0030F5000030F4000030F300003093
:10184800F200BD2C0130A0000310F20DF30DF40DD1
:10185800F50DA00B282CAB1F322C332C342C721412
:101868002B1C372C382C3C2C03142B0DAB003E2C96
:101878000310AB0D2A080319422C432C452C0130C8
:10188800AA02F41F482C492C262CA901AB1F4D2C69
:101898004E2C5C2C2B087F390319532C542C572CB5
:1018A8000130A9005C2C721C5A2C5B2C5C2C542C2B
:1018B80029080319602C612C932C0130F2070030A1
:1018C80003180130F307003003180130F407003023
:1018D80003180130F507751C722C732C932C7208B1
:1018E800A0007308A1007408A2007508A3000130C5
:1018F800A400230DA30CA20CA10CA00CA40B7D2CFE
:101908002308F5002208F4002108F3002008F2005B
:101918002A0A0319902C912C932C0130AA072A0A21
:101928000319972C982C9D2C2A08031D9C2C9D2C60
:10193800AB2C0030F5000030F4000030F30000302C
:10194800F2002A08031DA92CAA2CAB2CA8012A1CDA
:10195800AE2CAF2CB12CF417B32C7F30F4052A0829
:10196800A0000310200CF500A81FBB2CBC2CBD2C1C
:10197800F5170800831203132908B3008030B30554
:101988002908AE002E07B900A81FCB2CCC2CCD2CD3
:10199800391439080319D12CD22CE12C390A031D2A
:1019A800D62CD72CDF2C0030A9000030A80000303E
:1019B800A7000030A600A817E92C0030A9000030C5
:1019C800A8000030A7000030A6002D088039B30613
:1019D8002D08AE002E07B400AC1FF32CF42CF52C08
:1019E800341434080319F92CFA2C092D340A031D70
:1019F800FE2CFF2C072D0030AD000030AC0000306D
:101A0800AB000030AA00AC17112D0030AD0000303B
:101A1800AC000030AB000030AA0034080319152DC3
:101A2800162D1B2D3908031D1A2D1B2D242D0030B2
:101A3800A9000030A8000030A7000030A600FF2F42
:101A48002608F2002C080A168A1529240A128A1573
:101A5800730883120313BF007208BE003E08AE006D
:101A6800AF01B001B1013108B8003008B7002F0844
:101A7800B6002E08B5003F08AE00AF01B001B101B5
:101A88003108BD003008BC002F08BB002E08BA0082
:101A98002708F2002B080A168A1529240A128A1523
:101AA800730883120313BF007208BE003E08AE001D
:101AB800AF01B001B1012E08B5072F0803110318B3
:101AC800013E0319682DB607300803110318013EBB
:101AD80003196F2DB707310803110318013E0319C5
:101AE800762DB8073F08AE00AF01B001B1012E084E
:101AF800BA072F0803110318013E0319842DBB07E9
:101B0800300803110318013E03198B2DBC07310857
:101B180003110318013E0319922DBD072808F2008E
:101B28002A080A168A1529240A128A1573088312A4
:101B38000313BF007208BE003E08AE00AF01B0013B
:101B4800B1012E08B5072F0803110318013E031928
:101B5800AE2DB607300803110318013E0319B52D41
:101B6800B707310803110318013E0319BC2DB80744
:101B78003F08AE00AF01B001B1012E08BA072F0827
:101B880003110318013E0319CA2DBB0730080311BE
:101B98000318013E0319D12DBC073108031103189E
:101BA800013E0319D82DBD070830AE000310B50D4E
:101BB800B60DB70DB80DAE0BDA2D2708F2002A08BE
:101BC8000A168A1529240A128A1573088312031320
:101BD800BF007208BE003E08AE003F08AF00B0016B
:101BE800B1012E08B5072F0803110318013E031988
:101BF800FE2DB607300803110318013E0319052E00
:101C0800B707310803110318013E03190C2EB80752
:101C18002608F2002B080A168A1529240A128A15A2
:101C2800730883120313BF007208BE003E08AE009B
:101C38003F08AF00B001B1012E08B5072F08031106
:101C48000318013E0319292EB6073008031103189B
:101C5800013E0319302EB707310803110318013E5E
:101C68000319372EB8070830AE000310B50DB60DAE
:101C7800B70DB80DAE0B392E2608F2002A080A1641
:101C88008A1529240A128A15730883120313BF00C0
:101C98007208BE003E08AE003F08AF00B001B101B7
:101CA8002E08B5072F0803110318013E03195D2EEE
:101CB800B607300803110318013E0319642EB7074D
:101CC800310803110318013E03196B2EB8072708C2
:101CD800F2002C080A168A1529240A128A15730894
:101CE80083120313BF007208BE003E08AE003F080F
:101CF800AF00B001B1012E08BA072F08031103186D
:101D0800013E0319882EBB07300803110318013E52
:101D180003198F2EBC07310803110318013E03195C
:101D2800962EBD072808F2002B080A168A152924C2
:101D38000A128A15730883120313BF007208BE00C3
:101D48003E08AE003F08AF00B001B1012E08BA0747
:101D58002F0803110318013E0319B32EBB073008DF
:101D680003110318013E0319BA2EBC0731080311E9
:101D78000318013E0319C12EBD072808F2002C08DC
:101D88000A168A1529240A128A157308831203135E
:101D9800BF007208BE003E08AE003F08AF00B001A9
:101DA800B10108300310AE0DAF0DB00DB10DFF3EFF
:101DB800031DD62E2E08BA072F0803110318013E5B
:101DC8000319E72EBB07300803110318013E031956
:101DD800EE2EBC07310803110318013E0319F52E36
:101DE800BD073508AE003608AF003708B000380820
:101DF800B10018300310B10CB00CAF0CAE0CFF3EA4
:101E0800031DFE2E2E08BA072F0803110318013EE2
:101E180003190F2FBB07300803110318013E0319DC
:101E2800162FBC07310803110318013E03191D2F93
:101E3800BD070830AE000310B50DB60DB70DB80DCF
:101E4800AE0B1F2F39083407AE00AF01AF0D2E08B7
:101E5800823EBE002F080318013EFF3EBF00512FEF
:101E68000130AE000310BA0DBB0DBC0DBD0DAE0B9D
:101E7800362FB81F402F412F422F3A140130AE00A1
:101E88000310B50DB60DB70DB80DAE0B442FFF30CE
:101E9800BE070318BF0AFF30BF07BC1F542F552FBA
:101EA800342FB401B81F592F5A2F762FFF3035051C
:101EB800AE00FF303605AF00FF303705B0007F3089
:101EC8003805B100310830042F042E0403196D2F92
:101ED8006E2F712F0130B400762F3A1C742F752F96
:101EE800762F6E2F340803197A2F7B2FAC2F0130F1
:101EF800BA07003003180130BB070030031801305F
:101F0800BC07003003180130BD073D1C8C2F8D2FF6
:101F1800AC2F3A08AE003B08AF003C08B0003D08C3
:101F2800B1000130B200310DB10CB00CAF0CAE0CE9
:101F3800B20B972F3108BD003008BC002F08BB003A
:101F48002E08BA000130BE070318BF0A0030BF07C9
:101F58003F08803AFF0080307F02031DB52FFF3015
:101F68003E02031CB82FB92FC42F7F3083120313EE
:101F7800BD008030BC000030BB000030BA00F52F37
:101F8800831203133F08803AFF0080307F02031D4D
:101F9800CF2F01303E020318D22FD32FDF2F00306E
:101FA80083120313BD000030BC000030BB000030BA
:101FB800BA00B301F52F831203133E08B900FF30AE
:101FC800BA05FF30BB057F30BC050030BD05391CA4
:101FD800EE2FEF2FF02FBC173908AE0003102E0C90
:101FE800BD003308BD043D08A9003C08A8003B0813
:081FF800A7003A08A60008004A
:10200200F70083160317100884008317111C83132B
:102012000130F50012080739013E11280310F50DB1
:10202200FF3E031D0F287508FF3A800577080A1640
:102032008A116B220A168A1183160317100884006C
:102042008317111C83130130F500120CF600F60CF5
:10205200760C0739013E2F280310F50DFF3E031DB4
:102062002D28750880040B30F6006230F500F50B60
:102072003828F60B3828000083160317100884004E
:102082008317111C83130130F500120CF600F60CB5
:10209200760C0739013E4F280310F50DFF3E031D54
:1020A2004D287508FF3A80050800FB1B59285A285D
:1020B2005E28FD3083160313EE05FB1F612862289C
:1020C2006928013083120313B9000030BA006F2867
:1020D2007B0883120313BA007A08B9008316031728
:1020E2001E0883120313BC00831603171D088312F4
:1020F2000313BB004F30BD000030BE008312031734
:10210200DF01C028FF3083120313BD070318BE0A84
:10211200FF30BE073D08103E84000A30F200003056
:10212200F3003808F5003708F4000A168A15A824C7
:102132000A168A117208303E83178000FF3083121C
:102142000313B9070318BA0AFF30BA07FF30BB07F7
:102152000318BC0AFF30BC070A30F2000030F3005B
:102162003808F5003708F4000A168A15E0240A1622
:102172008A11730883120313B8007208B70003139D
:102182003D083E040319C628C728EF28370838043B
:10219200031DCC28CD2883283A08803AFF008030DE
:1021A2007F02031DD628013039020318D928DA2804
:1021B2008328831203133C08803AFF0080307F0299
:1021C200031DE52801303B02031CE828E928EF281B
:1021D20083160313EE18EE28EF28832883120313C5
:1021E2003508AE003608AF003D08103EB0003C088E
:1021F200B2003B08B1000A168A1572250A168A1126
:102202000800903084008312031320088317800093
:10221200840A21088000840A22088000840A230894
:102222008000840A240880000030831603171106F8
:10223200031D1D2905301006031D202921292529EA
:10224200831603138501402900301106031D2B2933
:1022520006301006031D2E292F2933298316031356
:102262008601402900301106031D39290730100666
:10227200031D3C293D29B4298316031387013430F9
:10228200F900F130F800F80B4429F90B44294929E7
:1022920003300A168A1101200A168A110D30F9003C
:1022A200FB30F800F80B5329F90B53295829033056
:1022B2000A168A1101200A168A112A30F9008D3075
:1022C200F800F80B6229F90B6229672903300A1614
:1022D2008A1101200A168A1102300A168A11012077
:1022E2000A168A1102300A168A1101200A168A1168
:1022F20008300A168A1101200A168A1100300A16BD
:102302008A1101200A168A1106300A168A11012042
:102312000A168A11083083120313A5002515250811
:10232200F80004300310F80CFF3E031D93297808CF
:102332000F390A168A1101200A168A118312031311
:1023420025080F390A168A1101200A168A1100304F
:102352000A168A1101200A168A1101300A168A11F8
:1023620001200A168A11080083120313A000200814
:102372000319BC29BD29D129F51FC029C129D12999
:102382007209A2007309A3007409A4007509A500CB
:10239200A20A0319A30A0319A40A0319A50AD9292F
:1023A2007508A5007408A4007308A3007208A200AF
:1023B2007508740473047204031DE029E129EA29F3
:1023C2000030F5000030F4000030F3000030F2007D
:1023D2006A2A9630A100F8290130A10701300310C2
:1023E200A50CA40CA30CA20CFF3E031DF029FE3089
:1023F2002505031DFD29FE29ED29182A0130A10713
:102402000130A207003003180130A307003003187F
:102412000130A407003003180130A5070130031072
:10242200A50CA40CA30CA20CFF3E031D102AFF3026
:102432002505031D1D2A1E2AFF292A2A0130A10271
:102442000130F6000310A20DA30DA40DA50DF60B8D
:10245200232AA41B2D2A2E2A342A023021020318F1
:10246200332A342A1F2A2118372A382A402AFF30D1
:10247200A205FF30A3057F30A405FF30A505031098
:10248200A10C2108F600F701F801F9011830031038
:10249200F60DF70DF80DF90DFF3E031D482A7608DB
:1024A200A2047708A3047808A4047908A5042008E4
:1024B20003195C2A5D2A622AF51F602A612A622AB0
:1024C200A5172508F5002408F4002308F3002208C4
:1024D200F2000800F400741C6F2A702A852A831601
:1024E2000317100884008317111C83130130F200B4
:1024F20013080739013E7F2A0310F20DFF3E031D28
:102502007D2A720880049A2A831603171008840011
:102512008317111C83130130F20013080739013E9F
:10252200942A0310F20DFF3E031D922A7208FF3A0D
:102532008005F41C9D2A9E2AB42A10088400831761
:10254200111C83130130F200130CF300F30C730C13
:102552000739013EAE2A0310F20DFF3E031DAC2ADD
:1025620072088004CA2A100884008317111C83137E
:102572000130F200130CF300F30C730C0739013E27
:10258200C42A0310F20DFF3E031DC22A7208FF3A4D
:102592008005741DCD2ACE2AE12A100884008317F3
:1025A200111C83130130F20014080739013EDB2AA3
:1025B2000310F20DFF3E031DD92A72088004F42A8B
:1025C200100884008317111C83130130F2001408D1
:1025D2000739013EEE2A0310F20DFF3E031DEC2ADD
:1025E2007208FF3A8005F41DF72AF82A0E2B10080C
:1025F20084008317111C83130130F200140CF300C2
:10260200F30C730C0739013E082B0310F20DFF3E49
:10261200031D062B72088004242B100884008317E4
:10262200111C83130130F200140CF300F30C730C31
:102632000739013E1E2B0310F20DFF3E031D1C2B1A
:102642007208FF3A8005080083160313CC0125089F
:10265200D0002408CF002308CE002208CD00500865
:1026620083120313C300831603134F088312031349
:10267200C200831603134E0883120313C10083168C
:1026820003134D0883120313C0000030C70000304B
:10269200C6000030C5000030C4000A128A150020AE
:1026A2000A168A110318562B572B722B01308316E8
:1026B2000313CC005008F5004F08F4004E08F30055
:1026C2004D08F2000A168A1508230A168A1175089F
:1026D20083160313D0007408CF007308CE0072086B
:1026E200CD0083160313D101D201831603171E08EE
:1026F20083160313C100831603171D0883160313E1
:10270200C0004C080319862B872B972B4C08031DFE
:102712008B2B8C2B912B2B30B1000030B200952BE0
:102722002D30B1000030B2003108CC005008F50065
:102732004F08F4004E08F3004D08F2000A168A15FD
:102742003F260A168A1172037304031DA92BAA2BB2
:10275200F32B831603134C080319B02BB12BC12B97
:102762004C08831203179000FF3083160313C0072F
:102772000318C10AFF30C1070130D1000030D20076
:102782005108103EF2001130F3000A168A15362362
:102792000A168A11FD3083160313C0070318C10AF3
:1027A200FF30C107200883120313AE008316031300
:1027B200210883120313AF001030B00083160313F5
:1027C200410883120313B2008316031340088312D5
:1027D2000313B1000A168A1572250A168A110A1203
:1027E2008A119C2F831603135008F5004F08F4003A
:1027F2004E08F3004D08F2000A168A153F260A1603
:102802008A1172087304031D072C0A2C0A128A11FA
:102812004928831603134C080319102C112C212C60
:102822004C08831203179000FF3083160313C0076E
:102832000318C10AFF30C1070130D1000030D200B5
:102842005108103EF2001530F3000A168A1536239D
:102852000A168A11CB2B8316031718088312031347
:10286200ED0083160317170883120313EC00831677
:102872000317160883120313EB00831603171508B8
:1028820083120313EA005D08ED005C08EC005B08AC
:10289200EB005A08EA006A08DE006B08DF006C08E9
:1028A200E0006D08E10017300310E10CE00CDF0CD2
:1028B200DE0CFF3E031D552CFF305E05E2000030AA
:1028C2005F05E3006208813EE80063080318013EE9
:1028D200FF3EE9006908803AFF0080307F02031D55
:1028E200742C17306802031C772C782C792C3A2D23
:1028F20083120313E91B7E2C7F2CEF2C680AFF0046
:10290200FF30DE00FF30DF007F30E0000030E1000A
:102912008F2C610DE10CE00CDF0CDE0CFF0B8A2C1E
:102922006108E7006008E6005F08E5005E08E40071
:1029320064086A05DE0065086B05DF0066086C0541
:10294200E00067086D05E100610860045F045E0451
:10295200031DAC2CAD2CAE2C782C6A08DE006B0863
:10296200DF006C08E0006D08E1001F300310E10C8D
:10297200E00CDF0CDE0CFF3E031DB72C6108600487
:102982005F045E040319C62CC72CDE2C6408EA0718
:10299200650803110318013E0319D02CEB076608E2
:1029A20003110318013E0319D72CEC076708031122
:1029B2000318013E0319DE2CED076409DE006509E8
:1029C200DF006609E0006709E1005E08EA055F08CA
:1029D200EB056008EC056108ED05322D6A08DE00A2
:1029E2006B08DF006C08E0006D08E1001F30031087
:1029F200E10CE00CDF0CDE0CFF3E031DF82C61083D
:102A020060045F045E04031D072D082D112D0030A4
:102A1200ED000030EC000030EB000030EA00322D17
:102A22006A08DE006B08DF006C08E0006D08E10058
:102A320001300310DE0DDF0DE00DE10DFF3E031D41
:102A42001A2D610860045F045E040319292D2A2DE2
:102A5200322DBF30ED008030EC000030EB00003052
:102A6200EA006D08DD006C08DC006B08DB006A0818
:102A7200DA0008000A168A15FD220A168A110A12BD
:102A82008A11F6270A168A11C030840083160317AA
:102A92004F0883178000840A50088000840A510876
:102AA2008000840A52088000840A53088000203083
:102AB2008400400883138000840A41088000840A4D
:102AC20042088000840A43088000840A4408800087
:102AD2000A168A1102210A168A1100300A168A1170
:102AE20001200A168A1101300A168A1101200A16DB
:102AF2008A110A168A1513230A168A117308831675
:102B02000317CA007208C900443083120313C300BA
:102B12007F30C200C030C1000030C0004030A90088
:102B2200A030A8000030A7000030A60083160317CB
:102B32004908F2004A08F300F401F50100300A16D0
:102B42008A11B5210A168A11750883120313AD0082
:102B52007408AC007308AB007208AA000A128A1546
:102B6200BE240A168A11831203132908C7002808F3
:102B7200C6002708C5002608C4000A128A15A42028
:102B82000A168A1183120313430883160317C80017
:102B920083120313420883160317C7008312031319
:102BA200410883160317C6008312031340088316D5
:102BB2000317C50008300A168A1101200A168A1165
:102BC20000300A168A1101200A168A11A3308316D0
:102BD2000313E7000B30E800831603174808831637
:102BE2000313EC0083160317470883160313EB0045
:102BF20083160317460883160313EA008316031786
:102C0200450883160313E9000A168A157D240A165D
:102C12008A11A330F8000A168A1593230A168A111C
:102C22000C300A168A1101200A168A110B300A1674
:102C32008A1101200A168A113C30F2000030F3009A
:102C4200831603172208F5002108F4000A168A15D4
:102C5200E0240A168A11730883160317CC0072083F
:102C6200CB003C30F2000030F3002208F5002108CE
:102C7200F4000A168A15A8240A168A117308831604
:102C82000317CE007208CD00AB3083160313E700A2
:102C92000130E800831603174C0883160313EA0079
:102CA200831603174B0883160313E90083160317D1
:102CB2004E0883160313EC00831603174D08831680
:102CC2000313EB000A168A157D240A168A11AB300B
:102CD200F8000A168A1593230A168A1102308316FF
:102CE2000317BF000430BE00B930BD00BD0B772E04
:102CF200BE0B772EBF0B772E7E2E7A2D0A128A11EB
:102D02000C288316031359088400831300088400D7
:102D12000A168A1500200A168A11253A031D922ED8
:102D2200932EE22F5908840001308007831603177F
:102D32009D019E01003083160313EE00FF30FA005E
:102D4200FF30FB00DB01BB2EEE145908840001307A
:102D52008007BB2E0130DB00BB2E5908840000081F
:102D620084000A168A1500200A168A11303A0319BD
:102D7200A52EAB2E5B080319BF2EC02EAE2E59080E
:102D8200F8005A08F9000A128A119D270A168A11B8
:102D92007908831603179E0078089D009E1FD22E85
:102DA200D32EDD2E831603136E14831603179D098B
:102DB2009E099D0A03199E0A83160313590884006B
:102DC2008313000884000A168A1500200A168A1145
:102DD2002E3A031DED2EEE2EFF2E590884000130EF
:102DE20080075908F8005A08F9000A128A119D272B
:102DF2000A168A117908FB007808FA008316031371
:102E02005908840083130008E100610884000A164F
:102E12008A1500200A168A11753A031D112F122FE6
:102E22004E2F5A08840083170008FF0002308007E3
:102E32007F08840083130008DC00840A0008DD0098
:102E4200590884006108013E8000432F570883120D
:102E52000313B50083160313580883120313B60035
:102E6200831603135D0883120313B800831603133A
:102E72005C0883120313B7000A168A1156200A1639
:102E82008A11FF2F610884000A168A1500200A168B
:102E92008A11753A0319272F4E2F5908840000080A
:102EA200E100610884000A168A1500200A168A11B8
:102EB200E000632F0130E1076E2F6C30E0006E2FCF
:102EC200E0016E2F60084C3A03195B2F2A3A03196E
:102ED2005E2F0A3A03195B2F612F610884000A16DC
:102EE2008A1500200A168A11663A031D792F7A2F55
:102EF200DA2FA72F5A08840083170008FF00043036
:102F020080077F08840083130008DC00840A00081D
:102F1200DD00840A0008DE00840A0008DF00AF2F0B
:102F22005A08840083170008FF00043080077F08D6
:102F3200840083130008DC00840A0008DD00840A90
:102F42000008DE00840A0008DF00AF2F60084C3A58
:102F52000319912F203A03197B2FAF2F59088400B0
:102F62006108013E8000CF2F5708A0005808A10039
:102F72005F08A5005E08A4005D08A3005C08A2002B
:102F8200610884000A168A1500200A168A11A60012
:102F92000A168A1125230A168A11FF2F6108840056
:102FA2000A168A1500200A168A11663A0319B52FE5
:102FB200DA2F831603135908840001308313800724
:102FC200FF2F59088400000884000A168A15002081
:102FD2000A168A1183120313EE00EF016E08F20043
:102FE2006F08F300831603135708F4005808F5001E
:102FF2000A168A1560270A168A11DA2F0800183075
:103002008A000408840A82070034253430343234BA
:1030120075343A342534303432347534003425343E
:103022002E34323466345634003469346E346634A5
:0A30320000346E3461346E34003453
:1035E000073400341A342C343E3464008001840AD9
:1035F0000406031900340406F62A07308316031361
:103600008100B2308312031381008B168B170800E0
:10361000750874047304720403190F2B102B122BFA
:103620008030F5060800831203139F149F18192B8E
:103630001A2B162B1E08F300831603131E08F20024
:103640000800F51B242B252B262B352B7209F200A5
:103650007309F3007409F4007509F500F20A0319FF
:10366000F30A0319F40A0319F50A08007208F400B2
:103670000130F307FF30730784000A168A15002013
:103680000A168A15FF007408F40A84007F0883175D
:1036900080000008031D4D2B4E2B382B08007308AB
:1036A000F8007208F700612B78088400831700087F
:1036B000F6000130F80777088400760880000130B2
:1036C000F7070130F4020030031CF503F502740A19
:1036D000031D6E2B750A031D6E2B6F2B542B0800D8
:1036E000831603136408E600822B6208D700630880
:1036F000D800E630D9006508DA000A168A11822659
:103700000A168A1583160313660884000A168A159A
:1037100000200A168A15003A031D8F2B902B752B5B
:10372000E201E301080083120313A001A101AB2B06
:1037300020087807F9007908840000080A168A151D
:10374000CC260A168A15013083120313A00703182A
:10375000A10A0030A10720087807F9007908840041
:1037600083170008031DB52BB62B982B080080305B
:1037700083120313C3064708F5004608F400450802
:10378000F3004408F2004308F9004208F800410839
:10379000F7004008F6000A128A156E220A168A15EA
:1037A000750883120313C3007408C2007308C100B4
:1037B0007208C0000800F601F701721CE02BE12B33
:1037C000E72B7408F6070318F70A7508F7070130A6
:1037D0000310F40DF50DFF3E031DE82B013003101F
:1037E000F30CF20CFF3E031DEF2B72087304031D54
:1037F000FA2BFB2BDD2B7708F3007608F20008008C
:103800000B1D032C042C222C0130831603179F0759
:103810000318A00A0030A007003020026530031909
:103820001F02031C142C152C1D2C0130A10703189A
:10383000A20A0030A2079F01A001B2308312031335
:1038400081000B1171088A00700E8300FE0E7E0E3F
:10385000090083120313A400A001A1017208F4005F
:10386000F5017408A2007508A300241C382C392C1B
:103870003F2C2208A0070318A10A2308A107013042
:103880000310A20DA30DFF3E031D402C0310A40C3A
:103890002408031D4C2C4D2C352C2108F300200846
:1038A000F200080083120313AC01AD016F2C2B084A
:1038B000A900AA012908F2002A08F3007708F400F9
:1038C0007808F5000A168A1560270A168A1501304D
:1038D00083120313AC070318AD0A0030AD072C08A0
:1038E0007607A9002908840083170008AB002B087D
:1038F000031D7B2C7C2C572C0800E9308316031702
:10390000B10083160313670883160317B200013052
:10391000B300B401B501BB01BC01B230831603137F
:10392000E2000130E3006808E400B130E5000A1667
:103930008A1570230A168A1583160317340883160E
:1039400003136707ED006D088400831780010800EA
:10395000720873040319AD2CAE2CDB2C0130F60079
:10396000BA2C01300310F20DF30DFF3E031DB22CF3
:103970000130F607F31FBD2CBE2CB12C7308750265
:10398000031DC42C72087402031CC72CC82CCE2C37
:103990007208F4027308031CF503F50201300310EA
:1039A000F30CF20CFF3E031DCF2C0130F602031D79
:1039B000DA2CDB2CBE2C7508F3007408F20008002A
:1039C000F601F701720873040319E72CE82C1D2D8A
:1039D0000130F800F42C01300310F20DF30DFF3E1E
:1039E000031DEC2C0130F807F31FF72CF82CEB2CFF
:1039F00001300310F60DF70DFF3E031DF92C73087F
:103A00007502031D052D72087402031C082D092D73
:103A1000102D7208F4027308031CF503F5027614E6
:103A200001300310F30CF20CFF3E031D112D013089
:103A3000F802031D1C2D1D2DF82C7708F3007608C5
:103A4000F20008000030720583120313A00000305A
:103A50007305A10080307405A2007F307505A300B6
:103A60002308220421042004031D372D382D402D66
:103A70000030F5000030F4000030F3000030F200B8
:103A800000307605A00000307705A1008030780571
:103A9000A2007F307905A30023082204210420041A
:103AA000031D532D542D5C2D0030F9000030F8001B
:103AB0000030F7000030F60079087506031D6A2D06
:103AC00078087406031D6A2D77087306031D6A2D96
:103AD0007608720603196D2D6E2D702D0310712D51
:103AE00003140800831603136E1C772D782D852D83
:103AF000831203133008F6002E08F7002F08F80091
:103B00000A168A1552240A168A1583120313B21F45
:103B10008A2D8B2D8D2DB101B201B301B401A72DDA
:103B20002030F2000030F300831203132E08F4005B
:103B30002F08F5000A168A1560270A168A15013023
:103B400083120313B3070318B40A0030B407340810
:103B5000803AF9003208803A7902031DB12D31080C
:103B60003302031CB42DB52D902D831603136E184C
:103B7000BA2DBB2DC82D831203133008F6002E0872
:103B8000F7002F08F8000A168A1552240A168A151B
:103B900008000310740D750D83120313A100210892
:103BA000031DD32DD42DDD2D0030F5000030F400A1
:103BB0000030F3000030F2003E2E7208F600730869
:103BC000F7007408F8007508F9001F300310F90CAD
:103BD000F80CF70CF60CFF3E031DE62D7608A0004E
:103BE000F417FF30F205FF30F305FF30F405003025
:103BF000F5059630A102A11FFE2DFF2D172E2108DD
:103C0000803A973E0318052E062E072ED42D01303C
:103C10000310F50CF40CF30CF20CFF3E031D082E00
:103C20000130A107031D152E162E072E2E2E203033
:103C30002102031C1C2E1D2E292ED42D0130F6002E
:103C40000310F20DF30DF40DF50DF60B202E0130DF
:103C5000A1022108031D2D2E2E2E1E2E2008031931
:103C6000322E332E3E2EF209F309F409F509F20A39
:103C70000319F30A0319F40A0319F50A0800831655
:103C800003171C0883120313AB00831603171B08CA
:103C900083120313AA00831603171A08831203134F
:103CA000A90083160317190883120313A8007508C7
:103CB000AB007408AA007308A9007208A8002808BD
:103CC000A0002908A1002A08A2002B08A300173091
:103CD0000310A30CA20CA10CA00CFF3E031D682E28
:103CE000FF302005A60000302105A7002608270484
:103CF000031D7B2E7C2E9F2E2808A0002908A100E2
:103D00002A08A2002B08A30001300310A00DA10D6A
:103D1000A20DA30DFF3E031D852E230822042104BE
:103D20002004031D942E952E9A2E0230F2000030AE
:103D3000F300CB2E0330F2000030F300CB2E260A26
:103D40002704031DA42EA52EC72E2808A00029088D
:103D5000A1002A08A2002B08A30009300310A00D1F
:103D6000A10DA20DA30DFF3E031DAE2E23082204BC
:103D7000210420040319BD2EBF2E0130C02E0030B7
:103D8000A400A5012408F2002508F300CB2E04307E
:103D9000F2000030F3000800F70083160317100844
:103DA00084008317111C83130130F50012080739B2
:103DB000013EDC2E0310F50DFF3E031DDA2E7508C3
:103DC00080047708F50004300310F50CFF3E031D56
:103DD000E42E75080F390A168A116B220A168A1505
:103DE00083160317100884008317111C83130130F6
:103DF000F500120CF600F60C760C0739013E022F86
:103E00000310F50DFF3E031D002F750880041A30C6
:103E1000F500F50B092F0000831603171008840026
:103E20008317111C83130130F500120CF600F60CF9
:103E3000760C0739013E1E2F0310F50DFF3E031DC2
:103E40001C2F7508FF3A800577080F390A168A116A
:103E50006B220A168A15831603171008840083172D
:103E6000111C83130130F500120CF600F60C760CD1
:103E70000739013E3D2F0310F50DFF3E031D3B2F7B
:103E8000750880041A30F500F50B442F00008316E6
:103E90000317100884008317111C83130130F500E9
:103EA000120CF600F60C760C0739013E592F031060
:103EB000F50DFF3E031D572F7508FF3A80050800DA
:103EC000740875040319652F662F6C2F7408750428
:103ED000031D6B2F6C2F732F72080A128A11FF2794
:103EE0000A168A15FF2F7408093E83120313A000D7
:103EF00075080318013E003EA100200884008317C6
:103F0000211C83130008A200840A0008A3002208D1
:103F1000230403198C2F8D2FBF2F7408093EA00096
:103F200075080318013E003EA10020088400831795
:103F3000211C83130008A200840A0008A30074084F
:103F4000023EA40075080318013E003EA5002408A7
:103F500084008317251C83130008A600840A000828
:103F6000A7002708803AA8002308803A2802031DEA
:103F7000BB2F220826020318BE2FBF2FFF2F740865
:103F800084008317751C8313000883120313A00099
:103F9000840A0008A1007408023EA20075080318F4
:103FA000013E003EA300220884008317231C8313D4
:103FB00000082007A5002108A4000318A40A801FF8
:103FC000E22FA403831203132408A600250884000B
:103FD0008317261C8313720880007408023EA00019
:103FE00075080318013E003EA100200884008317D5
:103FF000211C831301308007840A0318800A0800FB
:04400E00F22FFF3F4F
:00000001FF
